{
    "_format": "hh-sol-artifact-1",
    "contractName": "RentingPool",
    "sourceName": "contracts/RentinPool.sol",
    "abi": [
        {
            "anonymous": false,
            "inputs": [
                {
                    "indexed": true,
                    "internalType": "address",
                    "name": "nftAddress",
                    "type": "address"
                },
                {
                    "indexed": true,
                    "internalType": "uint256",
                    "name": "nftId",
                    "type": "uint256"
                },
                {
                    "indexed": false,
                    "internalType": "uint256",
                    "name": "flashFee",
                    "type": "uint256"
                },
                {
                    "indexed": false,
                    "internalType": "uint256",
                    "name": "pricePerBlock",
                    "type": "uint256"
                },
                {
                    "indexed": false,
                    "internalType": "uint256",
                    "name": "maxLongTermBlocks",
                    "type": "uint256"
                }
            ],
            "name": "AddNft",
            "type": "event"
        },
        {
            "anonymous": false,
            "inputs": [
                {
                    "indexed": true,
                    "internalType": "address",
                    "name": "nftAddress",
                    "type": "address"
                },
                {
                    "indexed": true,
                    "internalType": "uint256",
                    "name": "nftId",
                    "type": "uint256"
                },
                {
                    "indexed": false,
                    "internalType": "uint256",
                    "name": "flashFee",
                    "type": "uint256"
                },
                {
                    "indexed": false,
                    "internalType": "uint256",
                    "name": "pricePerBlock",
                    "type": "uint256"
                },
                {
                    "indexed": false,
                    "internalType": "uint256",
                    "name": "maxLongTermBlocks",
                    "type": "uint256"
                }
            ],
            "name": "EditNft",
            "type": "event"
        },
        {
            "anonymous": false,
            "inputs": [
                {
                    "indexed": true,
                    "internalType": "address",
                    "name": "nftAddress",
                    "type": "address"
                },
                {
                    "indexed": true,
                    "internalType": "uint256",
                    "name": "nftId",
                    "type": "uint256"
                },
                {
                    "indexed": true,
                    "internalType": "address",
                    "name": "initiator",
                    "type": "address"
                }
            ],
            "name": "FlashLoan",
            "type": "event"
        },
        {
            "anonymous": false,
            "inputs": [
                {
                    "indexed": true,
                    "internalType": "address",
                    "name": "nftAddress",
                    "type": "address"
                },
                {
                    "indexed": true,
                    "internalType": "uint256",
                    "name": "nftId",
                    "type": "uint256"
                },
                {
                    "indexed": false,
                    "internalType": "uint256",
                    "name": "blocks",
                    "type": "uint256"
                },
                {
                    "indexed": true,
                    "internalType": "address",
                    "name": "retner",
                    "type": "address"
                }
            ],
            "name": "LongTermRent",
            "type": "event"
        },
        {
            "anonymous": false,
            "inputs": [
                {
                    "indexed": true,
                    "internalType": "address",
                    "name": "nftAddress",
                    "type": "address"
                },
                {
                    "indexed": true,
                    "internalType": "uint256",
                    "name": "nftId",
                    "type": "uint256"
                }
            ],
            "name": "RemoveNft",
            "type": "event"
        },
        {
            "anonymous": false,
            "inputs": [
                {
                    "indexed": true,
                    "internalType": "address",
                    "name": "nftAddress",
                    "type": "address"
                },
                {
                    "indexed": true,
                    "internalType": "uint256",
                    "name": "nftId",
                    "type": "uint256"
                },
                {
                    "indexed": true,
                    "internalType": "address",
                    "name": "operator",
                    "type": "address"
                }
            ],
            "name": "TokenOperatorSet",
            "type": "event"
        },
        {
            "anonymous": false,
            "inputs": [
                {
                    "indexed": true,
                    "internalType": "address",
                    "name": "initiator",
                    "type": "address"
                },
                {
                    "indexed": false,
                    "internalType": "uint256",
                    "name": "earnings",
                    "type": "uint256"
                }
            ],
            "name": "WithdrawEarnings",
            "type": "event"
        },
        {
            "inputs": [
                {
                    "internalType": "address",
                    "name": "nftAddress",
                    "type": "address"
                },
                {
                    "internalType": "uint256",
                    "name": "nftId",
                    "type": "uint256"
                },
                {
                    "internalType": "uint256",
                    "name": "flashFee",
                    "type": "uint256"
                },
                {
                    "internalType": "uint256",
                    "name": "pricePerBlock",
                    "type": "uint256"
                },
                {
                    "internalType": "uint256",
                    "name": "maxLongTermBlocks",
                    "type": "uint256"
                }
            ],
            "name": "addNft",
            "outputs": [],
            "stateMutability": "nonpayable",
            "type": "function"
        },
        {
            "inputs": [
                {
                    "internalType": "address",
                    "name": "nftAddress",
                    "type": "address"
                },
                {
                    "internalType": "uint256",
                    "name": "nftId",
                    "type": "uint256"
                },
                {
                    "internalType": "uint256",
                    "name": "flashFee",
                    "type": "uint256"
                },
                {
                    "internalType": "uint256",
                    "name": "pricePerBlock",
                    "type": "uint256"
                },
                {
                    "internalType": "uint256",
                    "name": "maxLongTermBlocks",
                    "type": "uint256"
                }
            ],
            "name": "editNft",
            "outputs": [],
            "stateMutability": "nonpayable",
            "type": "function"
        },
        {
            "inputs": [
                {
                    "internalType": "address",
                    "name": "nftAddress",
                    "type": "address"
                },
                {
                    "internalType": "uint256",
                    "name": "nftId",
                    "type": "uint256"
                },
                {
                    "internalType": "address",
                    "name": "receiverAddress",
                    "type": "address"
                },
                {
                    "internalType": "bytes",
                    "name": "data",
                    "type": "bytes"
                }
            ],
            "name": "flashLoan",
            "outputs": [],
            "stateMutability": "payable",
            "type": "function"
        },
        {
            "inputs": [],
            "name": "numberOfNFTsInPool",
            "outputs": [
                {
                    "internalType": "uint256",
                    "name": "count",
                    "type": "uint256"
                }
            ],
            "stateMutability": "view",
            "type": "function"
        },
        {
            "inputs": [
                {
                    "internalType": "address",
                    "name": "",
                    "type": "address"
                },
                {
                    "internalType": "address",
                    "name": "",
                    "type": "address"
                },
                {
                    "internalType": "uint256",
                    "name": "",
                    "type": "uint256"
                },
                {
                    "internalType": "bytes",
                    "name": "",
                    "type": "bytes"
                }
            ],
            "name": "onERC721Received",
            "outputs": [
                {
                    "internalType": "bytes4",
                    "name": "",
                    "type": "bytes4"
                }
            ],
            "stateMutability": "nonpayable",
            "type": "function"
        },
        {
            "inputs": [
                {
                    "internalType": "address",
                    "name": "nftAddress",
                    "type": "address"
                },
                {
                    "internalType": "uint256",
                    "name": "nftId",
                    "type": "uint256"
                }
            ],
            "name": "operatorOf",
            "outputs": [
                {
                    "internalType": "address",
                    "name": "operator",
                    "type": "address"
                }
            ],
            "stateMutability": "view",
            "type": "function"
        },
        {
            "inputs": [
                {
                    "internalType": "uint256",
                    "name": "",
                    "type": "uint256"
                }
            ],
            "name": "poolIndex",
            "outputs": [
                {
                    "internalType": "address",
                    "name": "nftAddress",
                    "type": "address"
                },
                {
                    "internalType": "uint256",
                    "name": "nftId",
                    "type": "uint256"
                }
            ],
            "stateMutability": "view",
            "type": "function"
        },
        {
            "inputs": [
                {
                    "internalType": "address",
                    "name": "",
                    "type": "address"
                },
                {
                    "internalType": "uint256",
                    "name": "",
                    "type": "uint256"
                }
            ],
            "name": "poolNft",
            "outputs": [
                {
                    "internalType": "address",
                    "name": "originalOwner",
                    "type": "address"
                },
                {
                    "internalType": "address",
                    "name": "operator",
                    "type": "address"
                },
                {
                    "internalType": "uint256",
                    "name": "flashFee",
                    "type": "uint256"
                },
                {
                    "internalType": "uint256",
                    "name": "pricePerBlock",
                    "type": "uint256"
                },
                {
                    "internalType": "uint256",
                    "name": "maxLongTermBlocks",
                    "type": "uint256"
                },
                {
                    "internalType": "uint256",
                    "name": "rentedUntil",
                    "type": "uint256"
                },
                {
                    "internalType": "bool",
                    "name": "isRentable",
                    "type": "bool"
                },
                {
                    "internalType": "uint256",
                    "name": "index",
                    "type": "uint256"
                }
            ],
            "stateMutability": "view",
            "type": "function"
        },
        {
            "inputs": [
                {
                    "internalType": "address",
                    "name": "nftAddress",
                    "type": "address"
                },
                {
                    "internalType": "uint256",
                    "name": "nftId",
                    "type": "uint256"
                }
            ],
            "name": "removeNft",
            "outputs": [],
            "stateMutability": "nonpayable",
            "type": "function"
        },
        {
            "inputs": [
                {
                    "internalType": "address",
                    "name": "nftAddress",
                    "type": "address"
                },
                {
                    "internalType": "uint256",
                    "name": "nftId",
                    "type": "uint256"
                },
                {
                    "internalType": "address",
                    "name": "receiverAddress",
                    "type": "address"
                },
                {
                    "internalType": "uint256",
                    "name": "blocks",
                    "type": "uint256"
                }
            ],
            "name": "rentLong",
            "outputs": [],
            "stateMutability": "payable",
            "type": "function"
        },
        {
            "inputs": [
                {
                    "internalType": "address",
                    "name": "nftAddress",
                    "type": "address"
                },
                {
                    "internalType": "uint256",
                    "name": "nftId",
                    "type": "uint256"
                },
                {
                    "internalType": "address",
                    "name": "operator",
                    "type": "address"
                }
            ],
            "name": "setTokenOperator",
            "outputs": [],
            "stateMutability": "nonpayable",
            "type": "function"
        },
        {
            "inputs": [],
            "name": "withdrawEarnings",
            "outputs": [],
            "stateMutability": "nonpayable",
            "type": "function"
        }
    ],
    "bytecode": "0x608060405234801561001057600080fd5b50612a90806100206000396000f3fe6080604052600436106100a75760003560e01c8063adf51de111610064578063adf51de1146101e5578063b73c6ce914610201578063cd22c75214610218578063ece187f114610256578063f39b46a314610272578063fc82a5ce1461029d576100a7565b80630111d773146100ac5780630e285d2a146100d5578063150b7a02146101125780631df2a44f1461014f5780633efe76e0146101785780637958488a146101a1575b600080fd5b3480156100b857600080fd5b506100d360048036038101906100ce9190611d53565b6102c6565b005b3480156100e157600080fd5b506100fc60048036038101906100f79190611d17565b61051a565b6040516101099190612170565b60405180910390f35b34801561011e57600080fd5b5061013960048036038101906101349190611c9c565b610597565b60405161014691906122c5565b60405180910390f35b34801561015b57600080fd5b5061017660048036038101906101719190611e85565b6105ab565b005b34801561018457600080fd5b5061019f600480360381019061019a9190611e85565b610706565b005b3480156101ad57600080fd5b506101c860048036038101906101c39190611d17565b610b40565b6040516101dc9897969594939291906121c2565b60405180910390f35b6101ff60048036038101906101fa9190611da2565b610be2565b005b34801561020d57600080fd5b50610216611158565b005b34801561022457600080fd5b5061023f600480360381019061023a9190611f25565b6112df565b60405161024d929190612240565b60405180910390f35b610270600480360381019061026b9190611e22565b611333565b005b34801561027e57600080fd5b5061028761166f565b6040516102949190612440565b60405180910390f35b3480156102a957600080fd5b506102c460048036038101906102bf9190611d17565b61167c565b005b60008060008573ffffffffffffffffffffffffffffffffffffffff1673ffffffffffffffffffffffffffffffffffffffff168152602001908152602001600020600084815260200190815260200160002090508060000160009054906101000a900473ffffffffffffffffffffffffffffffffffffffff1673ffffffffffffffffffffffffffffffffffffffff163373ffffffffffffffffffffffffffffffffffffffff16146103ab576040517f08c379a00000000000000000000000000000000000000000000000000000000081526004016103a290612420565b60405180910390fd5b438160050154106103f1576040517f08c379a00000000000000000000000000000000000000000000000000000000081526004016103e890612380565b60405180910390fd5b818160010160006101000a81548173ffffffffffffffffffffffffffffffffffffffff021916908373ffffffffffffffffffffffffffffffffffffffff1602179055508060060160009054906101000a900460ff16156104b9578373ffffffffffffffffffffffffffffffffffffffff1663e7a1c1c084846040518363ffffffff1660e01b815260040161048692919061245b565b600060405180830381600087803b1580156104a057600080fd5b505af11580156104b4573d6000803e3d6000fd5b505050505b8173ffffffffffffffffffffffffffffffffffffffff16838573ffffffffffffffffffffffffffffffffffffffff167f15d0c40203061217293937ad52e8c2445b5f5b5ec6eb3eeb1959c265c0ff076260405160405180910390a450505050565b60008060008473ffffffffffffffffffffffffffffffffffffffff1673ffffffffffffffffffffffffffffffffffffffff168152602001908152602001600020600083815260200190815260200160002060010160009054906101000a900473ffffffffffffffffffffffffffffffffffffffff16905092915050565b600063150b7a0260e01b9050949350505050565b60008060008773ffffffffffffffffffffffffffffffffffffffff1673ffffffffffffffffffffffffffffffffffffffff168152602001908152602001600020600086815260200190815260200160002090503373ffffffffffffffffffffffffffffffffffffffff168160000160009054906101000a900473ffffffffffffffffffffffffffffffffffffffff1673ffffffffffffffffffffffffffffffffffffffff1614610690576040517f08c379a000000000000000000000000000000000000000000000000000000000815260040161068790612420565b60405180910390fd5b838160020181905550828160030181905550818160040181905550848673ffffffffffffffffffffffffffffffffffffffff167f72531487465a1bc55b36aa4f56b284b573ca151e1cbe8e9eca414ccc02445add8686866040516106f693929190612484565b60405180910390a3505050505050565b8473ffffffffffffffffffffffffffffffffffffffff166342842e0e3330876040518463ffffffff1660e01b81526004016107439392919061218b565b600060405180830381600087803b15801561075d57600080fd5b505af1158015610771573d6000803e3d6000fd5b5050505060008573ffffffffffffffffffffffffffffffffffffffff166301ffc9a77f0b4603a8000000000000000000000000000000000000000000000000000000006040518263ffffffff1660e01b81526004016107d091906122c5565b60206040518083038186803b1580156107e857600080fd5b505afa1580156107fc573d6000803e3d6000fd5b505050506040513d601f19601f820116820180604052508101906108209190611efc565b9050600060018054905090506040518061010001604052803373ffffffffffffffffffffffffffffffffffffffff1681526020013373ffffffffffffffffffffffffffffffffffffffff168152602001868152602001858152602001848152602001600081526020018315158152602001828152506000808973ffffffffffffffffffffffffffffffffffffffff1673ffffffffffffffffffffffffffffffffffffffff168152602001908152602001600020600088815260200190815260200160002060008201518160000160006101000a81548173ffffffffffffffffffffffffffffffffffffffff021916908373ffffffffffffffffffffffffffffffffffffffff16021790555060208201518160010160006101000a81548173ffffffffffffffffffffffffffffffffffffffff021916908373ffffffffffffffffffffffffffffffffffffffff16021790555060408201518160020155606082015181600301556080820151816004015560a0820151816005015560c08201518160060160006101000a81548160ff02191690831515021790555060e08201518160070155905050600160405180604001604052808973ffffffffffffffffffffffffffffffffffffffff16815260200188815250908060018154018082558091505060019003906000526020600020906002020160009091909190915060008201518160000160006101000a81548173ffffffffffffffffffffffffffffffffffffffff021916908373ffffffffffffffffffffffffffffffffffffffff1602179055506020820151816001015550508115610ae4578673ffffffffffffffffffffffffffffffffffffffff1663e7a1c1c087336040518363ffffffff1660e01b8152600401610ab192919061245b565b600060405180830381600087803b158015610acb57600080fd5b505af1158015610adf573d6000803e3d6000fd5b505050505b858773ffffffffffffffffffffffffffffffffffffffff167fcca24609298d0112dea60c6387622c12136ebea731c798596b3f09ca27f71d25878787604051610b2f93929190612484565b60405180910390a350505050505050565b6000602052816000526040600020602052806000526040600020600091509150508060000160009054906101000a900473ffffffffffffffffffffffffffffffffffffffff16908060010160009054906101000a900473ffffffffffffffffffffffffffffffffffffffff16908060020154908060030154908060040154908060050154908060060160009054906101000a900460ff16908060070154905088565b60008060008773ffffffffffffffffffffffffffffffffffffffff1673ffffffffffffffffffffffffffffffffffffffff168152602001908152602001600020600086815260200190815260200160002090506000438260050154101590508015610cda573373ffffffffffffffffffffffffffffffffffffffff168260010160009054906101000a900473ffffffffffffffffffffffffffffffffffffffff1673ffffffffffffffffffffffffffffffffffffffff1614610cd9576040517f08c379a0000000000000000000000000000000000000000000000000000000008152600401610cd0906122e0565b60405180910390fd5b5b60003373ffffffffffffffffffffffffffffffffffffffff168360010160009054906101000a900473ffffffffffffffffffffffffffffffffffffffff1673ffffffffffffffffffffffffffffffffffffffff1614610d3d578260020154610d40565b60005b905080341015610d85576040517f08c379a0000000000000000000000000000000000000000000000000000000008152600401610d7c906123a0565b60405180910390fd5b8773ffffffffffffffffffffffffffffffffffffffff166342842e0e30888a6040518463ffffffff1660e01b8152600401610dc29392919061218b565b600060405180830381600087803b158015610ddc57600080fd5b505af1158015610df0573d6000803e3d6000fd5b5050505081158015610e1057508260060160009054906101000a900460ff165b15610e83578773ffffffffffffffffffffffffffffffffffffffff1663e7a1c1c088886040518363ffffffff1660e01b8152600401610e5092919061245b565b600060405180830381600087803b158015610e6a57600080fd5b505af1158015610e7e573d6000803e3d6000fd5b505050505b8573ffffffffffffffffffffffffffffffffffffffff16638f79bdd2898984338a8a6040518763ffffffff1660e01b8152600401610ec696959493929190612269565b602060405180830381600087803b158015610ee057600080fd5b505af1158015610ef4573d6000803e3d6000fd5b505050506040513d601f19601f82011682018060405250810190610f189190611efc565b610f57576040517f08c379a0000000000000000000000000000000000000000000000000000000008152600401610f4e90612360565b60405180910390fd5b81158015610f7357508260060160009054906101000a900460ff165b1561100a578773ffffffffffffffffffffffffffffffffffffffff1663e7a1c1c0888560010160009054906101000a900473ffffffffffffffffffffffffffffffffffffffff166040518363ffffffff1660e01b8152600401610fd792919061245b565b600060405180830381600087803b158015610ff157600080fd5b505af1158015611005573d6000803e3d6000fd5b505050505b8773ffffffffffffffffffffffffffffffffffffffff166342842e0e87308a6040518463ffffffff1660e01b81526004016110479392919061218b565b600060405180830381600087803b15801561106157600080fd5b505af1158015611075573d6000803e3d6000fd5b5050505034600260008560000160009054906101000a900473ffffffffffffffffffffffffffffffffffffffff1673ffffffffffffffffffffffffffffffffffffffff1673ffffffffffffffffffffffffffffffffffffffff16815260200190815260200160002060008282546110ec919061253e565b925050819055503373ffffffffffffffffffffffffffffffffffffffff16878973ffffffffffffffffffffffffffffffffffffffff167f5931a93eeea518d0bc5077cf5bc1c1862e0277a160701fec6383d09edf305fbd60405160405180910390a45050505050505050565b6000600260003373ffffffffffffffffffffffffffffffffffffffff1673ffffffffffffffffffffffffffffffffffffffff1681526020019081526020016000205490506000600260003373ffffffffffffffffffffffffffffffffffffffff1673ffffffffffffffffffffffffffffffffffffffff1681526020019081526020016000208190555060003373ffffffffffffffffffffffffffffffffffffffff16826040516112079061215b565b60006040518083038185875af1925050503d8060008114611244576040519150601f19603f3d011682016040523d82523d6000602084013e611249565b606091505b505090508061128d576040517f08c379a000000000000000000000000000000000000000000000000000000000815260040161128490612340565b60405180910390fd5b3373ffffffffffffffffffffffffffffffffffffffff167f64757b9a00f193ad19794cab4d1545a2f93edb93a4b18ec8e5e46583924d0876836040516112d39190612440565b60405180910390a25050565b600181815481106112ef57600080fd5b90600052602060002090600202016000915090508060000160009054906101000a900473ffffffffffffffffffffffffffffffffffffffff16908060010154905082565b60008060008673ffffffffffffffffffffffffffffffffffffffff1673ffffffffffffffffffffffffffffffffffffffff1681526020019081526020016000206000858152602001908152602001600020905060008160030154116113cd576040517f08c379a00000000000000000000000000000000000000000000000000000000081526004016113c4906123c0565b60405180910390fd5b43816005015410611413576040517f08c379a000000000000000000000000000000000000000000000000000000000815260040161140a90612400565b60405180910390fd5b818160040154111561145a576040517f08c379a000000000000000000000000000000000000000000000000000000000815260040161145190612320565b60405180910390fd5b3482826003015461146b9190612594565b11156114ac576040517f08c379a00000000000000000000000000000000000000000000000000000000081526004016114a3906123e0565b60405180910390fd5b828160010160006101000a81548173ffffffffffffffffffffffffffffffffffffffff021916908373ffffffffffffffffffffffffffffffffffffffff16021790555081436114fb919061253e565b816005018190555034600260008360000160009054906101000a900473ffffffffffffffffffffffffffffffffffffffff1673ffffffffffffffffffffffffffffffffffffffff1673ffffffffffffffffffffffffffffffffffffffff1681526020019081526020016000206000828254611576919061253e565b925050819055508060060160009054906101000a900460ff1615611602578473ffffffffffffffffffffffffffffffffffffffff1663e7a1c1c085856040518363ffffffff1660e01b81526004016115cf92919061245b565b600060405180830381600087803b1580156115e957600080fd5b505af11580156115fd573d6000803e3d6000fd5b505050505b8273ffffffffffffffffffffffffffffffffffffffff16848673ffffffffffffffffffffffffffffffffffffffff167fe61c200c9c351edcb91b8de4b34457c7e03f1ed02685b7147977d73871240162856040516116609190612440565b60405180910390a45050505050565b6000600180549050905090565b60008060008473ffffffffffffffffffffffffffffffffffffffff1673ffffffffffffffffffffffffffffffffffffffff168152602001908152602001600020600083815260200190815260200160002090503373ffffffffffffffffffffffffffffffffffffffff168160000160009054906101000a900473ffffffffffffffffffffffffffffffffffffffff1673ffffffffffffffffffffffffffffffffffffffff1614611761576040517f08c379a000000000000000000000000000000000000000000000000000000000815260040161175890612420565b60405180910390fd5b438160050154106117a7576040517f08c379a000000000000000000000000000000000000000000000000000000000815260040161179e90612300565b60405180910390fd5b60008060008573ffffffffffffffffffffffffffffffffffffffff1673ffffffffffffffffffffffffffffffffffffffff16815260200190815260200160002060008481526020019081526020016000206007015490506000600180808054905061181291906125ee565b81548110611849577f4e487b7100000000000000000000000000000000000000000000000000000000600052603260045260246000fd5b906000526020600020906002020190508060018381548110611894577f4e487b7100000000000000000000000000000000000000000000000000000000600052603260045260246000fd5b90600052602060002090600202016000820160009054906101000a900473ffffffffffffffffffffffffffffffffffffffff168160000160006101000a81548173ffffffffffffffffffffffffffffffffffffffff021916908373ffffffffffffffffffffffffffffffffffffffff16021790555060018201548160010155905050816000808360000160009054906101000a900473ffffffffffffffffffffffffffffffffffffffff1673ffffffffffffffffffffffffffffffffffffffff1673ffffffffffffffffffffffffffffffffffffffff1681526020019081526020016000206000836001015481526020019081526020016000206007018190555060018054806119cd577f4e487b7100000000000000000000000000000000000000000000000000000000600052603160045260246000fd5b6001900381819060005260206000209060020201600080820160006101000a81549073ffffffffffffffffffffffffffffffffffffffff02191690556001820160009055505090556000808673ffffffffffffffffffffffffffffffffffffffff1673ffffffffffffffffffffffffffffffffffffffff1681526020019081526020016000206000858152602001908152602001600020600080820160006101000a81549073ffffffffffffffffffffffffffffffffffffffff02191690556001820160006101000a81549073ffffffffffffffffffffffffffffffffffffffff021916905560028201600090556003820160009055600482016000905560058201600090556006820160006101000a81549060ff0219169055600782016000905550508473ffffffffffffffffffffffffffffffffffffffff166342842e0e3033876040518463ffffffff1660e01b8152600401611b2e9392919061218b565b600060405180830381600087803b158015611b4857600080fd5b505af1158015611b5c573d6000803e3d6000fd5b50505050838573ffffffffffffffffffffffffffffffffffffffff167f71b81f63a8c7eda82dcb01f24a3306a11c1faab1a00084be12b334c042ffe7e360405160405180910390a35050505050565b6000611bbe611bb9846124e0565b6124bb565b905082815260208101848484011115611bd657600080fd5b611be1848285612696565b509392505050565b600081359050611bf881612a15565b92915050565b600081519050611c0d81612a2c565b92915050565b60008083601f840112611c2557600080fd5b8235905067ffffffffffffffff811115611c3e57600080fd5b602083019150836001820283011115611c5657600080fd5b9250929050565b600082601f830112611c6e57600080fd5b8135611c7e848260208601611bab565b91505092915050565b600081359050611c9681612a43565b92915050565b60008060008060808587031215611cb257600080fd5b6000611cc087828801611be9565b9450506020611cd187828801611be9565b9350506040611ce287828801611c87565b925050606085013567ffffffffffffffff811115611cff57600080fd5b611d0b87828801611c5d565b91505092959194509250565b60008060408385031215611d2a57600080fd5b6000611d3885828601611be9565b9250506020611d4985828601611c87565b9150509250929050565b600080600060608486031215611d6857600080fd5b6000611d7686828701611be9565b9350506020611d8786828701611c87565b9250506040611d9886828701611be9565b9150509250925092565b600080600080600060808688031215611dba57600080fd5b6000611dc888828901611be9565b9550506020611dd988828901611c87565b9450506040611dea88828901611be9565b935050606086013567ffffffffffffffff811115611e0757600080fd5b611e1388828901611c13565b92509250509295509295909350565b60008060008060808587031215611e3857600080fd5b6000611e4687828801611be9565b9450506020611e5787828801611c87565b9350506040611e6887828801611be9565b9250506060611e7987828801611c87565b91505092959194509250565b600080600080600060a08688031215611e9d57600080fd5b6000611eab88828901611be9565b9550506020611ebc88828901611c87565b9450506040611ecd88828901611c87565b9350506060611ede88828901611c87565b9250506080611eef88828901611c87565b9150509295509295909350565b600060208284031215611f0e57600080fd5b6000611f1c84828501611bfe565b91505092915050565b600060208284031215611f3757600080fd5b6000611f4584828501611c87565b91505092915050565b611f5781612622565b82525050565b611f6681612634565b82525050565b611f7581612640565b82525050565b6000611f878385612511565b9350611f94838584612696565b611f9d83612734565b840190509392505050565b6000611fb5603a8361252d565b9150611fc082612745565b604082019050919050565b6000611fd860318361252d565b9150611fe382612794565b604082019050919050565b6000611ffb60238361252d565b9150612006826127e3565b604082019050919050565b600061201e600f8361252d565b915061202982612832565b602082019050919050565b600061204160228361252d565b915061204c8261285b565b604082019050919050565b600061206460288361252d565b915061206f826128aa565b604082019050919050565b600061208760348361252d565b9150612092826128f9565b604082019050919050565b60006120aa600083612522565b91506120b582612948565b600082019050919050565b60006120cd60188361252d565b91506120d88261294b565b602082019050919050565b60006120f060158361252d565b91506120fb82612974565b602082019050919050565b6000612113601b8361252d565b915061211e8261299d565b602082019050919050565b6000612136602a8361252d565b9150612141826129c6565b604082019050919050565b6121558161268c565b82525050565b60006121668261209d565b9150819050919050565b60006020820190506121856000830184611f4e565b92915050565b60006060820190506121a06000830186611f4e565b6121ad6020830185611f4e565b6121ba604083018461214c565b949350505050565b6000610100820190506121d8600083018b611f4e565b6121e5602083018a611f4e565b6121f2604083018961214c565b6121ff606083018861214c565b61220c608083018761214c565b61221960a083018661214c565b61222660c0830185611f5d565b61223360e083018461214c565b9998505050505050505050565b60006040820190506122556000830185611f4e565b612262602083018461214c565b9392505050565b600060a08201905061227e6000830189611f4e565b61228b602083018861214c565b612298604083018761214c565b6122a56060830186611f4e565b81810360808301526122b8818486611f7b565b9050979650505050505050565b60006020820190506122da6000830184611f6c565b92915050565b600060208201905081810360008301526122f981611fa8565b9050919050565b6000602082019050818103600083015261231981611fcb565b9050919050565b6000602082019050818103600083015261233981611fee565b9050919050565b6000602082019050818103600083015261235981612011565b9050919050565b6000602082019050818103600083015261237981612034565b9050919050565b6000602082019050818103600083015261239981612057565b9050919050565b600060208201905081810360008301526123b98161207a565b9050919050565b600060208201905081810360008301526123d9816120c0565b9050919050565b600060208201905081810360008301526123f9816120e3565b9050919050565b6000602082019050818103600083015261241981612106565b9050919050565b6000602082019050818103600083015261243981612129565b9050919050565b6000602082019050612455600083018461214c565b92915050565b6000604082019050612470600083018561214c565b61247d6020830184611f4e565b9392505050565b6000606082019050612499600083018661214c565b6124a6602083018561214c565b6124b3604083018461214c565b949350505050565b60006124c56124d6565b90506124d182826126a5565b919050565b6000604051905090565b600067ffffffffffffffff8211156124fb576124fa612705565b5b61250482612734565b9050602081019050919050565b600082825260208201905092915050565b600081905092915050565b600082825260208201905092915050565b60006125498261268c565b91506125548361268c565b9250827fffffffffffffffffffffffffffffffffffffffffffffffffffffffffffffffff03821115612589576125886126d6565b5b828201905092915050565b600061259f8261268c565b91506125aa8361268c565b9250817fffffffffffffffffffffffffffffffffffffffffffffffffffffffffffffffff04831182151516156125e3576125e26126d6565b5b828202905092915050565b60006125f98261268c565b91506126048361268c565b925082821015612617576126166126d6565b5b828203905092915050565b600061262d8261266c565b9050919050565b60008115159050919050565b60007fffffffff0000000000000000000000000000000000000000000000000000000082169050919050565b600073ffffffffffffffffffffffffffffffffffffffff82169050919050565b6000819050919050565b82818337600083830152505050565b6126ae82612734565b810181811067ffffffffffffffff821117156126cd576126cc612705565b5b80604052505050565b7f4e487b7100000000000000000000000000000000000000000000000000000000600052601160045260246000fd5b7f4e487b7100000000000000000000000000000000000000000000000000000000600052604160045260246000fd5b6000601f19601f8301169050919050565b7f54686973204e46542069732072656e74656420616e64206f6e6c79207468652060008201527f6f70657261746f722063616e20666c617368206c6f616e206974000000000000602082015250565b7f43616e27742072656d6f7665206e66742066726f6d2074686520706f6f6c207760008201527f68696c652069742069732072656e746564000000000000000000000000000000602082015250565b7f596f752063616e27742072656e742074686973206e667420666f7220736f206c60008201527f6f6e670000000000000000000000000000000000000000000000000000000000602082015250565b7f5472616e73666572206661696c65640000000000000000000000000000000000600082015250565b7f4572726f7220647572696e6720466c61736852656e746572206578656375746960008201527f6f6e000000000000000000000000000000000000000000000000000000000000602082015250565b7f43616e277420736574206f70657261746f72207768696c6520746f6b656e206960008201527f732072656e746564000000000000000000000000000000000000000000000000602082015250565b7f596f752063616e27742074616b652074686520666c6173686c6f616e20666f7260008201527f2074686520696e64696361746564207072696365000000000000000000000000602082015250565b50565b7f546865206e6674206973206e6f7420617661696c61626c650000000000000000600082015250565b7f5061796d656e74206973206e6f7420656e6f7567680000000000000000000000600082015250565b7f546865206e66742069732063757272656e746c792072656e7465640000000000600082015250565b7f43616c6c65722073686f756c64206265206f726967696e616c206f776e65722060008201527f6f6620746865206e667400000000000000000000000000000000000000000000602082015250565b612a1e81612622565b8114612a2957600080fd5b50565b612a3581612634565b8114612a4057600080fd5b50565b612a4c8161268c565b8114612a5757600080fd5b5056fea2646970667358221220455585a887d0db332965639250d62015cf52cbfee1a60589f047eb76b33a8c9a64736f6c63430008040033",
    "linkReferences": {},
    "deployedLinkReferences": {}
}