{
  "_format": "hh-sol-artifact-1",
  "contractName": "RentingPool",
  "sourceName": "contracts/RentinPool.sol",
  "abi": [
    {
      "anonymous": false,
      "inputs": [
        {
          "indexed": true,
          "internalType": "address",
          "name": "nftAddress",
          "type": "address"
        },
        {
          "indexed": true,
          "internalType": "uint256",
          "name": "nftId",
          "type": "uint256"
        },
        {
          "indexed": false,
          "internalType": "uint256",
          "name": "flashFee",
          "type": "uint256"
        },
        {
          "indexed": false,
          "internalType": "uint256",
          "name": "pricePerBlock",
          "type": "uint256"
        },
        {
          "indexed": false,
          "internalType": "uint256",
          "name": "maxLongTermBlocks",
          "type": "uint256"
        }
      ],
      "name": "AddNft",
      "type": "event"
    },
    {
      "anonymous": false,
      "inputs": [
        {
          "indexed": true,
          "internalType": "address",
          "name": "nftAddress",
          "type": "address"
        },
        {
          "indexed": true,
          "internalType": "uint256",
          "name": "nftId",
          "type": "uint256"
        },
        {
          "indexed": false,
          "internalType": "uint256",
          "name": "flashFee",
          "type": "uint256"
        },
        {
          "indexed": false,
          "internalType": "uint256",
          "name": "pricePerBlock",
          "type": "uint256"
        },
        {
          "indexed": false,
          "internalType": "uint256",
          "name": "maxLongTermBlocks",
          "type": "uint256"
        }
      ],
      "name": "EditNft",
      "type": "event"
    },
    {
      "anonymous": false,
      "inputs": [
        {
          "indexed": true,
          "internalType": "address",
          "name": "nftAddress",
          "type": "address"
        },
        {
          "indexed": true,
          "internalType": "uint256",
          "name": "nftId",
          "type": "uint256"
        },
        {
          "indexed": true,
          "internalType": "address",
          "name": "initiator",
          "type": "address"
        }
      ],
      "name": "FlashLoan",
      "type": "event"
    },
    {
      "anonymous": false,
      "inputs": [
        {
          "indexed": true,
          "internalType": "address",
          "name": "nftAddress",
          "type": "address"
        },
        {
          "indexed": true,
          "internalType": "uint256",
          "name": "nftId",
          "type": "uint256"
        },
        {
          "indexed": false,
          "internalType": "uint256",
          "name": "blocks",
          "type": "uint256"
        },
        {
          "indexed": true,
          "internalType": "address",
          "name": "retner",
          "type": "address"
        }
      ],
      "name": "LongTermRent",
      "type": "event"
    },
    {
      "anonymous": false,
      "inputs": [
        {
          "indexed": true,
          "internalType": "address",
          "name": "nftAddress",
          "type": "address"
        },
        {
          "indexed": true,
          "internalType": "uint256",
          "name": "nftId",
          "type": "uint256"
        }
      ],
      "name": "RemoveNft",
      "type": "event"
    },
    {
      "anonymous": false,
      "inputs": [
        {
          "indexed": true,
          "internalType": "address",
          "name": "nftAddress",
          "type": "address"
        },
        {
          "indexed": true,
          "internalType": "uint256",
          "name": "nftId",
          "type": "uint256"
        },
        {
          "indexed": true,
          "internalType": "address",
          "name": "operator",
          "type": "address"
        }
      ],
      "name": "TokenOperatorSet",
      "type": "event"
    },
    {
      "anonymous": false,
      "inputs": [
        {
          "indexed": true,
          "internalType": "address",
          "name": "initiator",
          "type": "address"
        },
        {
          "indexed": false,
          "internalType": "uint256",
          "name": "earnings",
          "type": "uint256"
        }
      ],
      "name": "WithdrawEarnings",
      "type": "event"
    },
    {
      "inputs": [
        {
          "internalType": "address",
          "name": "nftAddress",
          "type": "address"
        },
        {
          "internalType": "uint256",
          "name": "nftId",
          "type": "uint256"
        },
        {
          "internalType": "uint256",
          "name": "flashFee",
          "type": "uint256"
        },
        {
          "internalType": "uint256",
          "name": "pricePerBlock",
          "type": "uint256"
        },
        {
          "internalType": "uint256",
          "name": "maxLongTermBlocks",
          "type": "uint256"
        }
      ],
      "name": "addNft",
      "outputs": [],
      "stateMutability": "nonpayable",
      "type": "function"
    },
    {
      "inputs": [],
      "name": "allNFT",
      "outputs": [
        {
          "components": [
            {
              "internalType": "address",
              "name": "nftAddress",
              "type": "address"
            },
            {
              "internalType": "uint256",
              "name": "nftId",
              "type": "uint256"
            },
            {
              "internalType": "address",
              "name": "originalOwner",
              "type": "address"
            },
            {
              "internalType": "address",
              "name": "operator",
              "type": "address"
            },
            {
              "internalType": "uint256",
              "name": "flashFee",
              "type": "uint256"
            },
            {
              "internalType": "uint256",
              "name": "pricePerBlock",
              "type": "uint256"
            },
            {
              "internalType": "uint256",
              "name": "maxLongTermBlocks",
              "type": "uint256"
            },
            {
              "internalType": "uint256",
              "name": "rentedUntil",
              "type": "uint256"
            },
            {
              "internalType": "bool",
              "name": "isOperable",
              "type": "bool"
            },
            {
              "internalType": "uint256",
              "name": "index",
              "type": "uint256"
            }
          ],
          "internalType": "struct RentingPool.PoolNFT[]",
          "name": "nfts",
          "type": "tuple[]"
        }
      ],
      "stateMutability": "view",
      "type": "function"
    },
    {
      "inputs": [
        {
          "internalType": "address",
          "name": "nftAddress",
          "type": "address"
        },
        {
          "internalType": "uint256",
          "name": "nftId",
          "type": "uint256"
        },
        {
          "internalType": "uint256",
          "name": "flashFee",
          "type": "uint256"
        },
        {
          "internalType": "uint256",
          "name": "pricePerBlock",
          "type": "uint256"
        },
        {
          "internalType": "uint256",
          "name": "maxLongTermBlocks",
          "type": "uint256"
        }
      ],
      "name": "editNft",
      "outputs": [],
      "stateMutability": "nonpayable",
      "type": "function"
    },
    {
      "inputs": [
        {
          "internalType": "address",
          "name": "nftAddress",
          "type": "address"
        },
        {
          "internalType": "uint256",
          "name": "nftId",
          "type": "uint256"
        },
        {
          "internalType": "address",
          "name": "receiverAddress",
          "type": "address"
        },
        {
          "internalType": "bytes",
          "name": "data",
          "type": "bytes"
        }
      ],
      "name": "flashLoan",
      "outputs": [],
      "stateMutability": "payable",
      "type": "function"
    },
    {
      "inputs": [
        {
          "internalType": "address",
          "name": "owner",
          "type": "address"
        }
      ],
      "name": "getEarnings",
      "outputs": [
        {
          "internalType": "uint256",
          "name": "",
          "type": "uint256"
        }
      ],
      "stateMutability": "view",
      "type": "function"
    },
    {
      "inputs": [
        {
          "internalType": "address",
          "name": "",
          "type": "address"
        },
        {
          "internalType": "address",
          "name": "",
          "type": "address"
        },
        {
          "internalType": "uint256",
          "name": "",
          "type": "uint256"
        },
        {
          "internalType": "bytes",
          "name": "",
          "type": "bytes"
        }
      ],
      "name": "onERC721Received",
      "outputs": [
        {
          "internalType": "bytes4",
          "name": "",
          "type": "bytes4"
        }
      ],
      "stateMutability": "nonpayable",
      "type": "function"
    },
    {
      "inputs": [
        {
          "internalType": "address",
          "name": "nftAddress",
          "type": "address"
        },
        {
          "internalType": "uint256",
          "name": "nftId",
          "type": "uint256"
        }
      ],
      "name": "operatorOf",
      "outputs": [
        {
          "internalType": "address",
          "name": "operator",
          "type": "address"
        }
      ],
      "stateMutability": "view",
      "type": "function"
    },
    {
      "inputs": [
        {
          "internalType": "address",
          "name": "owner",
          "type": "address"
        }
      ],
      "name": "ownerNFT",
      "outputs": [
        {
          "components": [
            {
              "internalType": "address",
              "name": "nftAddress",
              "type": "address"
            },
            {
              "internalType": "uint256",
              "name": "nftId",
              "type": "uint256"
            },
            {
              "internalType": "address",
              "name": "originalOwner",
              "type": "address"
            },
            {
              "internalType": "address",
              "name": "operator",
              "type": "address"
            },
            {
              "internalType": "uint256",
              "name": "flashFee",
              "type": "uint256"
            },
            {
              "internalType": "uint256",
              "name": "pricePerBlock",
              "type": "uint256"
            },
            {
              "internalType": "uint256",
              "name": "maxLongTermBlocks",
              "type": "uint256"
            },
            {
              "internalType": "uint256",
              "name": "rentedUntil",
              "type": "uint256"
            },
            {
              "internalType": "bool",
              "name": "isOperable",
              "type": "bool"
            },
            {
              "internalType": "uint256",
              "name": "index",
              "type": "uint256"
            }
          ],
          "internalType": "struct RentingPool.PoolNFT[]",
          "name": "nfts",
          "type": "tuple[]"
        }
      ],
      "stateMutability": "view",
      "type": "function"
    },
    {
      "inputs": [
        {
          "internalType": "address",
          "name": "nftAddress",
          "type": "address"
        },
        {
          "internalType": "uint256",
          "name": "nftId",
          "type": "uint256"
        }
      ],
      "name": "removeNft",
      "outputs": [],
      "stateMutability": "nonpayable",
      "type": "function"
    },
    {
      "inputs": [
        {
          "internalType": "address",
          "name": "nftAddress",
          "type": "address"
        },
        {
          "internalType": "uint256",
          "name": "nftId",
          "type": "uint256"
        },
        {
          "internalType": "uint256",
          "name": "blocks",
          "type": "uint256"
        }
      ],
      "name": "rentLong",
      "outputs": [],
      "stateMutability": "payable",
      "type": "function"
    },
    {
      "inputs": [
        {
          "internalType": "address",
          "name": "nftAddress",
          "type": "address"
        },
        {
          "internalType": "uint256",
          "name": "nftId",
          "type": "uint256"
        }
      ],
      "name": "setTokenOperator",
      "outputs": [],
      "stateMutability": "nonpayable",
      "type": "function"
    },
    {
      "inputs": [],
      "name": "withdrawEarnings",
      "outputs": [],
      "stateMutability": "nonpayable",
      "type": "function"
    }
  ],
  "bytecode": "0x608060405234801561001057600080fd5b506132db806100206000396000f3fe6080604052600436106100a75760003560e01c80637600f54a116100645780637600f54a146101de578063adf51de1146101fa578063b73c6ce914610216578063f2dbb39f1461022d578063fa29414914610258578063fc82a5ce14610295576100a7565b80630e285d2a146100ac578063131b9c04146100e9578063150b7a02146101265780631da97fa0146101635780631df2a44f1461018c5780633efe76e0146101b5575b600080fd5b3480156100b857600080fd5b506100d360048036038101906100ce91906123d1565b6102be565b6040516100e09190612959565b60405180910390f35b3480156100f557600080fd5b50610110600480360381019061010b919061232d565b610329565b60405161011d9190612ba4565b60405180910390f35b34801561013257600080fd5b5061014d60048036038101906101489190612356565b610372565b60405161015a9190612a29565b60405180910390f35b34801561016f57600080fd5b5061018a600480360381019061018591906123d1565b610386565b005b34801561019857600080fd5b506101b360048036038101906101ae91906124dc565b6105c7565b005b3480156101c157600080fd5b506101dc60048036038101906101d791906124dc565b610710565b005b6101f860048036038101906101f3919061248d565b610b88565b005b610214600480360381019061020f919061240d565b610f9f565b005b34801561022257600080fd5b5061022b6115c4565b005b34801561023957600080fd5b5061024261174b565b60405161024f9190612a07565b60405180910390f35b34801561026457600080fd5b5061027f600480360381019061027a919061232d565b6119f4565b60405161028c9190612a07565b60405180910390f35b3480156102a157600080fd5b506102bc60048036038101906102b791906123d1565b611d97565b005b600080600084846040516020016102d6929190612918565b6040516020818303038152906040528051906020012060001c815260200190815260200160002060030160009054906101000a900473ffffffffffffffffffffffffffffffffffffffff16905092915050565b6000600260008373ffffffffffffffffffffffffffffffffffffffff1673ffffffffffffffffffffffffffffffffffffffff168152602001908152602001600020549050919050565b600063150b7a0260e01b9050949350505050565b6000806000848460405160200161039e929190612918565b6040516020818303038152906040528051906020012060001c815260200190815260200160002090508060020160009054906101000a900473ffffffffffffffffffffffffffffffffffffffff1673ffffffffffffffffffffffffffffffffffffffff163373ffffffffffffffffffffffffffffffffffffffff1614610459576040517f08c379a000000000000000000000000000000000000000000000000000000000815260040161045090612b84565b60405180910390fd5b4381600701541061049f576040517f08c379a000000000000000000000000000000000000000000000000000000000815260040161049690612ae4565b60405180910390fd5b338160030160006101000a81548173ffffffffffffffffffffffffffffffffffffffff021916908373ffffffffffffffffffffffffffffffffffffffff1602179055508060080160009054906101000a900460ff1615610567578273ffffffffffffffffffffffffffffffffffffffff1663e7a1c1c083336040518363ffffffff1660e01b8152600401610534929190612bbf565b600060405180830381600087803b15801561054e57600080fd5b505af1158015610562573d6000803e3d6000fd5b505050505b3373ffffffffffffffffffffffffffffffffffffffff16828473ffffffffffffffffffffffffffffffffffffffff167f15d0c40203061217293937ad52e8c2445b5f5b5ec6eb3eeb1959c265c0ff076260405160405180910390a4505050565b600080600087876040516020016105df929190612918565b6040516020818303038152906040528051906020012060001c815260200190815260200160002090503373ffffffffffffffffffffffffffffffffffffffff168160020160009054906101000a900473ffffffffffffffffffffffffffffffffffffffff1673ffffffffffffffffffffffffffffffffffffffff161461069a576040517f08c379a000000000000000000000000000000000000000000000000000000000815260040161069190612b84565b60405180910390fd5b838160040181905550828160050181905550818160060181905550848673ffffffffffffffffffffffffffffffffffffffff167f72531487465a1bc55b36aa4f56b284b573ca151e1cbe8e9eca414ccc02445add86868660405161070093929190612be8565b60405180910390a3505050505050565b8473ffffffffffffffffffffffffffffffffffffffff166342842e0e3330876040518463ffffffff1660e01b815260040161074d93929190612974565b600060405180830381600087803b15801561076757600080fd5b505af115801561077b573d6000803e3d6000fd5b5050505060008573ffffffffffffffffffffffffffffffffffffffff166301ffc9a77f0b4603a8000000000000000000000000000000000000000000000000000000006040518263ffffffff1660e01b81526004016107da9190612a29565b60206040518083038186803b1580156107f257600080fd5b505afa158015610806573d6000803e3d6000fd5b505050506040513d601f19601f8201168201806040525081019061082a9190612553565b9050600060018054905090506000878760405160200161084b929190612918565b6040516020818303038152906040528051906020012060001c90506040518061014001604052808973ffffffffffffffffffffffffffffffffffffffff1681526020018881526020013373ffffffffffffffffffffffffffffffffffffffff1681526020013373ffffffffffffffffffffffffffffffffffffffff1681526020018781526020018681526020018581526020016000815260200184151581526020018381525060008083815260200190815260200160002060008201518160000160006101000a81548173ffffffffffffffffffffffffffffffffffffffff021916908373ffffffffffffffffffffffffffffffffffffffff1602179055506020820151816001015560408201518160020160006101000a81548173ffffffffffffffffffffffffffffffffffffffff021916908373ffffffffffffffffffffffffffffffffffffffff16021790555060608201518160030160006101000a81548173ffffffffffffffffffffffffffffffffffffffff021916908373ffffffffffffffffffffffffffffffffffffffff1602179055506080820151816004015560a0820151816005015560c0820151816006015560e082015181600701556101008201518160080160006101000a81548160ff02191690831515021790555061012082015181600901559050506001819080600181540180825580915050600190039060005260206000200160009091909190915055600360003373ffffffffffffffffffffffffffffffffffffffff1673ffffffffffffffffffffffffffffffffffffffff1681526020019081526020016000206000815480929190610ab290612e9d565b91905055508215610b2b578773ffffffffffffffffffffffffffffffffffffffff1663e7a1c1c088336040518363ffffffff1660e01b8152600401610af8929190612bbf565b600060405180830381600087803b158015610b1257600080fd5b505af1158015610b26573d6000803e3d6000fd5b505050505b868873ffffffffffffffffffffffffffffffffffffffff167fcca24609298d0112dea60c6387622c12136ebea731c798596b3f09ca27f71d25888888604051610b7693929190612be8565b60405180910390a35050505050505050565b60008060008585604051602001610ba0929190612918565b6040516020818303038152906040528051906020012060001c815260200190815260200160002090506000816005015411610c10576040517f08c379a0000000000000000000000000000000000000000000000000000000008152600401610c0790612b24565b60405180910390fd5b43816007015410610c56576040517f08c379a0000000000000000000000000000000000000000000000000000000008152600401610c4d90612b64565b60405180910390fd5b8060060154821115610c9d576040517f08c379a0000000000000000000000000000000000000000000000000000000008152600401610c9490612a84565b60405180910390fd5b34828260050154610cae9190612d31565b1115610cef576040517f08c379a0000000000000000000000000000000000000000000000000000000008152600401610ce690612b44565b60405180910390fd5b338160030160006101000a81548173ffffffffffffffffffffffffffffffffffffffff021916908373ffffffffffffffffffffffffffffffffffffffff1602179055508143610d3e9190612cdb565b8160070181905550818160050154610d569190612d31565b600260008360020160009054906101000a900473ffffffffffffffffffffffffffffffffffffffff1673ffffffffffffffffffffffffffffffffffffffff1673ffffffffffffffffffffffffffffffffffffffff1681526020019081526020016000206000828254610dc89190612cdb565b925050819055508060080160009054906101000a900460ff1615610e54578373ffffffffffffffffffffffffffffffffffffffff1663e7a1c1c084336040518363ffffffff1660e01b8152600401610e21929190612bbf565b600060405180830381600087803b158015610e3b57600080fd5b505af1158015610e4f573d6000803e3d6000fd5b505050505b818160050154610e649190612d31565b341115610f335760003373ffffffffffffffffffffffffffffffffffffffff16838360050154610e949190612d31565b34610e9f9190612d8b565b604051610eab90612944565b60006040518083038185875af1925050503d8060008114610ee8576040519150601f19603f3d011682016040523d82523d6000602084013e610eed565b606091505b5050905080610f31576040517f08c379a0000000000000000000000000000000000000000000000000000000008152600401610f2890612aa4565b60405180910390fd5b505b3373ffffffffffffffffffffffffffffffffffffffff16838573ffffffffffffffffffffffffffffffffffffffff167fe61c200c9c351edcb91b8de4b34457c7e03f1ed02685b7147977d7387124016285604051610f919190612ba4565b60405180910390a450505050565b60008060008787604051602001610fb7929190612918565b6040516020818303038152906040528051906020012060001c815260200190815260200160002090506000438260070154101590508015611085573373ffffffffffffffffffffffffffffffffffffffff168260030160009054906101000a900473ffffffffffffffffffffffffffffffffffffffff1673ffffffffffffffffffffffffffffffffffffffff1614611084576040517f08c379a000000000000000000000000000000000000000000000000000000000815260040161107b90612a44565b60405180910390fd5b5b60003373ffffffffffffffffffffffffffffffffffffffff168360030160009054906101000a900473ffffffffffffffffffffffffffffffffffffffff1673ffffffffffffffffffffffffffffffffffffffff16146110e85782600401546110eb565b60005b905080341015611130576040517f08c379a000000000000000000000000000000000000000000000000000000000815260040161112790612b04565b60405180910390fd5b8773ffffffffffffffffffffffffffffffffffffffff166342842e0e30888a6040518463ffffffff1660e01b815260040161116d93929190612974565b600060405180830381600087803b15801561118757600080fd5b505af115801561119b573d6000803e3d6000fd5b50505050811580156111bb57508260080160009054906101000a900460ff165b1561122e578773ffffffffffffffffffffffffffffffffffffffff1663e7a1c1c088886040518363ffffffff1660e01b81526004016111fb929190612bbf565b600060405180830381600087803b15801561121557600080fd5b505af1158015611229573d6000803e3d6000fd5b505050505b8573ffffffffffffffffffffffffffffffffffffffff16638f79bdd2898984338a8a6040518763ffffffff1660e01b8152600401611271969594939291906129ab565b602060405180830381600087803b15801561128b57600080fd5b505af115801561129f573d6000803e3d6000fd5b505050506040513d601f19601f820116820180604052508101906112c39190612553565b611302576040517f08c379a00000000000000000000000000000000000000000000000000000000081526004016112f990612ac4565b60405180910390fd5b8115801561131e57508260080160009054906101000a900460ff165b156113b5578773ffffffffffffffffffffffffffffffffffffffff1663e7a1c1c0888560030160009054906101000a900473ffffffffffffffffffffffffffffffffffffffff166040518363ffffffff1660e01b8152600401611382929190612bbf565b600060405180830381600087803b15801561139c57600080fd5b505af11580156113b0573d6000803e3d6000fd5b505050505b8773ffffffffffffffffffffffffffffffffffffffff166342842e0e87308a6040518463ffffffff1660e01b81526004016113f293929190612974565b600060405180830381600087803b15801561140c57600080fd5b505af1158015611420573d6000803e3d6000fd5b5050505080600260008560020160009054906101000a900473ffffffffffffffffffffffffffffffffffffffff1673ffffffffffffffffffffffffffffffffffffffff1673ffffffffffffffffffffffffffffffffffffffff16815260200190815260200160002060008282546114979190612cdb565b925050819055508034111561155f5760003373ffffffffffffffffffffffffffffffffffffffff1682346114cb9190612d8b565b6040516114d790612944565b60006040518083038185875af1925050503d8060008114611514576040519150601f19603f3d011682016040523d82523d6000602084013e611519565b606091505b505090508061155d576040517f08c379a000000000000000000000000000000000000000000000000000000000815260040161155490612aa4565b60405180910390fd5b505b3373ffffffffffffffffffffffffffffffffffffffff16878973ffffffffffffffffffffffffffffffffffffffff167f5931a93eeea518d0bc5077cf5bc1c1862e0277a160701fec6383d09edf305fbd60405160405180910390a45050505050505050565b6000600260003373ffffffffffffffffffffffffffffffffffffffff1673ffffffffffffffffffffffffffffffffffffffff1681526020019081526020016000205490506000600260003373ffffffffffffffffffffffffffffffffffffffff1673ffffffffffffffffffffffffffffffffffffffff1681526020019081526020016000208190555060003373ffffffffffffffffffffffffffffffffffffffff168260405161167390612944565b60006040518083038185875af1925050503d80600081146116b0576040519150601f19603f3d011682016040523d82523d6000602084013e6116b5565b606091505b50509050806116f9576040517f08c379a00000000000000000000000000000000000000000000000000000000081526004016116f090612aa4565b60405180910390fd5b3373ffffffffffffffffffffffffffffffffffffffff167f64757b9a00f193ad19794cab4d1545a2f93edb93a4b18ec8e5e46583924d08768360405161173f9190612ba4565b60405180910390a25050565b606060018054905067ffffffffffffffff811115611792577f4e487b7100000000000000000000000000000000000000000000000000000000600052604160045260246000fd5b6040519080825280602002602001820160405280156117cb57816020015b6117b86121a5565b8152602001906001900390816117b05790505b50905060005b6001805490508110156119f0576000806001838154811061181b577f4e487b7100000000000000000000000000000000000000000000000000000000600052603260045260246000fd5b90600052602060002001548152602001908152602001600020604051806101400160405290816000820160009054906101000a900473ffffffffffffffffffffffffffffffffffffffff1673ffffffffffffffffffffffffffffffffffffffff1673ffffffffffffffffffffffffffffffffffffffff168152602001600182015481526020016002820160009054906101000a900473ffffffffffffffffffffffffffffffffffffffff1673ffffffffffffffffffffffffffffffffffffffff1673ffffffffffffffffffffffffffffffffffffffff1681526020016003820160009054906101000a900473ffffffffffffffffffffffffffffffffffffffff1673ffffffffffffffffffffffffffffffffffffffff1673ffffffffffffffffffffffffffffffffffffffff168152602001600482015481526020016005820154815260200160068201548152602001600782015481526020016008820160009054906101000a900460ff161515151581526020016009820154815250508282815181106119d2577f4e487b7100000000000000000000000000000000000000000000000000000000600052603260045260246000fd5b602002602001018190525080806119e890612e9d565b9150506117d1565b5090565b6060600360008373ffffffffffffffffffffffffffffffffffffffff1673ffffffffffffffffffffffffffffffffffffffff1681526020019081526020016000205467ffffffffffffffff811115611a75577f4e487b7100000000000000000000000000000000000000000000000000000000600052604160045260246000fd5b604051908082528060200260200182016040528015611aae57816020015b611a9b6121a5565b815260200190600190039081611a935790505b5090506000805b600180549050811015611d90578373ffffffffffffffffffffffffffffffffffffffff1660008060018481548110611b16577f4e487b7100000000000000000000000000000000000000000000000000000000600052603260045260246000fd5b9060005260206000200154815260200190815260200160002060020160009054906101000a900473ffffffffffffffffffffffffffffffffffffffff1673ffffffffffffffffffffffffffffffffffffffff161415611d7d5760008060018381548110611bac577f4e487b7100000000000000000000000000000000000000000000000000000000600052603260045260246000fd5b90600052602060002001548152602001908152602001600020604051806101400160405290816000820160009054906101000a900473ffffffffffffffffffffffffffffffffffffffff1673ffffffffffffffffffffffffffffffffffffffff1673ffffffffffffffffffffffffffffffffffffffff168152602001600182015481526020016002820160009054906101000a900473ffffffffffffffffffffffffffffffffffffffff1673ffffffffffffffffffffffffffffffffffffffff1673ffffffffffffffffffffffffffffffffffffffff1681526020016003820160009054906101000a900473ffffffffffffffffffffffffffffffffffffffff1673ffffffffffffffffffffffffffffffffffffffff1673ffffffffffffffffffffffffffffffffffffffff168152602001600482015481526020016005820154815260200160068201548152602001600782015481526020016008820160009054906101000a900460ff16151515158152602001600982015481525050838381518110611d63577f4e487b7100000000000000000000000000000000000000000000000000000000600052603260045260246000fd5b60200260200101819052508180611d7990612e9d565b9250505b8080611d8890612e9d565b915050611ab5565b5050919050565b60008282604051602001611dac929190612918565b6040516020818303038152906040528051906020012060001c9050600080600083815260200190815260200160002090503373ffffffffffffffffffffffffffffffffffffffff168160020160009054906101000a900473ffffffffffffffffffffffffffffffffffffffff1673ffffffffffffffffffffffffffffffffffffffff1614611e6f576040517f08c379a0000000000000000000000000000000000000000000000000000000008152600401611e6690612b84565b60405180910390fd5b43816007015410611eb5576040517f08c379a0000000000000000000000000000000000000000000000000000000008152600401611eac90612a64565b60405180910390fd5b60008160090154905060006001808080549050611ed29190612d8b565b81548110611f09577f4e487b7100000000000000000000000000000000000000000000000000000000600052603260045260246000fd5b906000526020600020015490508060018381548110611f51577f4e487b7100000000000000000000000000000000000000000000000000000000600052603260045260246000fd5b906000526020600020018190555081600080838152602001908152602001600020600901819055506001805480611fb1577f4e487b7100000000000000000000000000000000000000000000000000000000600052603160045260246000fd5b60019003818190600052602060002001600090559055600080858152602001908152602001600020600080820160006101000a81549073ffffffffffffffffffffffffffffffffffffffff021916905560018201600090556002820160006101000a81549073ffffffffffffffffffffffffffffffffffffffff02191690556003820160006101000a81549073ffffffffffffffffffffffffffffffffffffffff021916905560048201600090556005820160009055600682016000905560078201600090556008820160006101000a81549060ff021916905560098201600090555050600360003373ffffffffffffffffffffffffffffffffffffffff1673ffffffffffffffffffffffffffffffffffffffff16815260200190815260200160002060008154809291906120e590612e42565b91905055508573ffffffffffffffffffffffffffffffffffffffff166342842e0e3033886040518463ffffffff1660e01b815260040161212793929190612974565b600060405180830381600087803b15801561214157600080fd5b505af1158015612155573d6000803e3d6000fd5b50505050848673ffffffffffffffffffffffffffffffffffffffff167f71b81f63a8c7eda82dcb01f24a3306a11c1faab1a00084be12b334c042ffe7e360405160405180910390a3505050505050565b604051806101400160405280600073ffffffffffffffffffffffffffffffffffffffff16815260200160008152602001600073ffffffffffffffffffffffffffffffffffffffff168152602001600073ffffffffffffffffffffffffffffffffffffffff16815260200160008152602001600081526020016000815260200160008152602001600015158152602001600081525090565b600061224f61224a84612c44565b612c1f565b90508281526020810184848401111561226757600080fd5b612272848285612e33565b509392505050565b60008135905061228981613260565b92915050565b60008151905061229e81613277565b92915050565b60008083601f8401126122b657600080fd5b8235905067ffffffffffffffff8111156122cf57600080fd5b6020830191508360018202830111156122e757600080fd5b9250929050565b600082601f8301126122ff57600080fd5b813561230f84826020860161223c565b91505092915050565b6000813590506123278161328e565b92915050565b60006020828403121561233f57600080fd5b600061234d8482850161227a565b91505092915050565b6000806000806080858703121561236c57600080fd5b600061237a8782880161227a565b945050602061238b8782880161227a565b935050604061239c87828801612318565b925050606085013567ffffffffffffffff8111156123b957600080fd5b6123c5878288016122ee565b91505092959194509250565b600080604083850312156123e457600080fd5b60006123f28582860161227a565b925050602061240385828601612318565b9150509250929050565b60008060008060006080868803121561242557600080fd5b60006124338882890161227a565b955050602061244488828901612318565b94505060406124558882890161227a565b935050606086013567ffffffffffffffff81111561247257600080fd5b61247e888289016122a4565b92509250509295509295909350565b6000806000606084860312156124a257600080fd5b60006124b08682870161227a565b93505060206124c186828701612318565b92505060406124d286828701612318565b9150509250925092565b600080600080600060a086880312156124f457600080fd5b60006125028882890161227a565b955050602061251388828901612318565b945050604061252488828901612318565b935050606061253588828901612318565b925050608061254688828901612318565b9150509295509295909350565b60006020828403121561256557600080fd5b60006125738482850161228f565b91505092915050565b60006125888383612817565b6101408301905092915050565b61259e81612dbf565b82525050565b6125ad81612dbf565b82525050565b6125c46125bf82612dbf565b612ee6565b82525050565b60006125d582612c85565b6125df8185612c9d565b93506125ea83612c75565b8060005b8381101561261b578151612602888261257c565b975061260d83612c90565b9250506001810190506125ee565b5085935050505092915050565b61263181612dd1565b82525050565b61264081612ddd565b82525050565b60006126528385612cae565b935061265f838584612e33565b61266883612f72565b840190509392505050565b6000612680603a83612cca565b915061268b82612f90565b604082019050919050565b60006126a3603183612cca565b91506126ae82612fdf565b604082019050919050565b60006126c6602383612cca565b91506126d18261302e565b604082019050919050565b60006126e9600f83612cca565b91506126f48261307d565b602082019050919050565b600061270c602283612cca565b9150612717826130a6565b604082019050919050565b600061272f602883612cca565b915061273a826130f5565b604082019050919050565b6000612752603483612cca565b915061275d82613144565b604082019050919050565b6000612775600083612cbf565b915061278082613193565b600082019050919050565b6000612798601883612cca565b91506127a382613196565b602082019050919050565b60006127bb601583612cca565b91506127c6826131bf565b602082019050919050565b60006127de601b83612cca565b91506127e9826131e8565b602082019050919050565b6000612801602a83612cca565b915061280c82613211565b604082019050919050565b6101408201600082015161282e6000850182612595565b50602082015161284160208501826128e3565b5060408201516128546040850182612595565b5060608201516128676060850182612595565b50608082015161287a60808501826128e3565b5060a082015161288d60a08501826128e3565b5060c08201516128a060c08501826128e3565b5060e08201516128b360e08501826128e3565b506101008201516128c8610100850182612628565b506101208201516128dd6101208501826128e3565b50505050565b6128ec81612e29565b82525050565b6128fb81612e29565b82525050565b61291261290d82612e29565b612f0a565b82525050565b600061292482856125b3565b6014820191506129348284612901565b6020820191508190509392505050565b600061294f82612768565b9150819050919050565b600060208201905061296e60008301846125a4565b92915050565b600060608201905061298960008301866125a4565b61299660208301856125a4565b6129a360408301846128f2565b949350505050565b600060a0820190506129c060008301896125a4565b6129cd60208301886128f2565b6129da60408301876128f2565b6129e760608301866125a4565b81810360808301526129fa818486612646565b9050979650505050505050565b60006020820190508181036000830152612a2181846125ca565b905092915050565b6000602082019050612a3e6000830184612637565b92915050565b60006020820190508181036000830152612a5d81612673565b9050919050565b60006020820190508181036000830152612a7d81612696565b9050919050565b60006020820190508181036000830152612a9d816126b9565b9050919050565b60006020820190508181036000830152612abd816126dc565b9050919050565b60006020820190508181036000830152612add816126ff565b9050919050565b60006020820190508181036000830152612afd81612722565b9050919050565b60006020820190508181036000830152612b1d81612745565b9050919050565b60006020820190508181036000830152612b3d8161278b565b9050919050565b60006020820190508181036000830152612b5d816127ae565b9050919050565b60006020820190508181036000830152612b7d816127d1565b9050919050565b60006020820190508181036000830152612b9d816127f4565b9050919050565b6000602082019050612bb960008301846128f2565b92915050565b6000604082019050612bd460008301856128f2565b612be160208301846125a4565b9392505050565b6000606082019050612bfd60008301866128f2565b612c0a60208301856128f2565b612c1760408301846128f2565b949350505050565b6000612c29612c3a565b9050612c358282612e6c565b919050565b6000604051905090565b600067ffffffffffffffff821115612c5f57612c5e612f43565b5b612c6882612f72565b9050602081019050919050565b6000819050602082019050919050565b600081519050919050565b6000602082019050919050565b600082825260208201905092915050565b600082825260208201905092915050565b600081905092915050565b600082825260208201905092915050565b6000612ce682612e29565b9150612cf183612e29565b9250827fffffffffffffffffffffffffffffffffffffffffffffffffffffffffffffffff03821115612d2657612d25612f14565b5b828201905092915050565b6000612d3c82612e29565b9150612d4783612e29565b9250817fffffffffffffffffffffffffffffffffffffffffffffffffffffffffffffffff0483118215151615612d8057612d7f612f14565b5b828202905092915050565b6000612d9682612e29565b9150612da183612e29565b925082821015612db457612db3612f14565b5b828203905092915050565b6000612dca82612e09565b9050919050565b60008115159050919050565b60007fffffffff0000000000000000000000000000000000000000000000000000000082169050919050565b600073ffffffffffffffffffffffffffffffffffffffff82169050919050565b6000819050919050565b82818337600083830152505050565b6000612e4d82612e29565b91506000821415612e6157612e60612f14565b5b600182039050919050565b612e7582612f72565b810181811067ffffffffffffffff82111715612e9457612e93612f43565b5b80604052505050565b6000612ea882612e29565b91507fffffffffffffffffffffffffffffffffffffffffffffffffffffffffffffffff821415612edb57612eda612f14565b5b600182019050919050565b6000612ef182612ef8565b9050919050565b6000612f0382612f83565b9050919050565b6000819050919050565b7f4e487b7100000000000000000000000000000000000000000000000000000000600052601160045260246000fd5b7f4e487b7100000000000000000000000000000000000000000000000000000000600052604160045260246000fd5b6000601f19601f8301169050919050565b60008160601b9050919050565b7f54686973204e46542069732072656e74656420616e64206f6e6c79207468652060008201527f6f70657261746f722063616e20666c617368206c6f616e206974000000000000602082015250565b7f43616e27742072656d6f7665206e66742066726f6d2074686520706f6f6c207760008201527f68696c652069742069732072656e746564000000000000000000000000000000602082015250565b7f596f752063616e27742072656e742074686973206e667420666f7220736f206c60008201527f6f6e670000000000000000000000000000000000000000000000000000000000602082015250565b7f5472616e73666572206661696c65640000000000000000000000000000000000600082015250565b7f4572726f7220647572696e6720466c61736852656e746572206578656375746960008201527f6f6e000000000000000000000000000000000000000000000000000000000000602082015250565b7f43616e277420736574206f70657261746f72207768696c6520746f6b656e206960008201527f732072656e746564000000000000000000000000000000000000000000000000602082015250565b7f596f752063616e27742074616b652074686520666c6173686c6f616e20666f7260008201527f2074686520696e64696361746564207072696365000000000000000000000000602082015250565b50565b7f546865206e6674206973206e6f7420617661696c61626c650000000000000000600082015250565b7f5061796d656e74206973206e6f7420656e6f7567680000000000000000000000600082015250565b7f546865206e66742069732063757272656e746c792072656e7465640000000000600082015250565b7f43616c6c65722073686f756c64206265206f726967696e616c206f776e65722060008201527f6f6620746865206e667400000000000000000000000000000000000000000000602082015250565b61326981612dbf565b811461327457600080fd5b50565b61328081612dd1565b811461328b57600080fd5b50565b61329781612e29565b81146132a257600080fd5b5056fea2646970667358221220d773c75ed244a9393d59c2a2d3efea4c121e89bc116c2f9af16eef7b34a530b764736f6c63430008040033",
  "linkReferences": {},
  "deployedLinkReferences": {}
}