{
  "_format": "hh-sol-artifact-1",
  "contractName": "RentingPool",
  "sourceName": "contracts/RentinPool.sol",
  "abi": [
    {
      "anonymous": false,
      "inputs": [
        {
          "indexed": true,
          "internalType": "address",
          "name": "nftAddress",
          "type": "address"
        },
        {
          "indexed": true,
          "internalType": "uint256",
          "name": "nftId",
          "type": "uint256"
        },
        {
          "indexed": false,
          "internalType": "uint256",
          "name": "flashFee",
          "type": "uint256"
        },
        {
          "indexed": false,
          "internalType": "uint256",
          "name": "pricePerBlock",
          "type": "uint256"
        },
        {
          "indexed": false,
          "internalType": "uint256",
          "name": "maxLongTermBlocks",
          "type": "uint256"
        }
      ],
      "name": "AddNft",
      "type": "event"
    },
    {
      "anonymous": false,
      "inputs": [
        {
          "indexed": true,
          "internalType": "address",
          "name": "nftAddress",
          "type": "address"
        },
        {
          "indexed": true,
          "internalType": "uint256",
          "name": "nftId",
          "type": "uint256"
        },
        {
          "indexed": false,
          "internalType": "uint256",
          "name": "flashFee",
          "type": "uint256"
        },
        {
          "indexed": false,
          "internalType": "uint256",
          "name": "pricePerBlock",
          "type": "uint256"
        },
        {
          "indexed": false,
          "internalType": "uint256",
          "name": "maxLongTermBlocks",
          "type": "uint256"
        }
      ],
      "name": "EditNft",
      "type": "event"
    },
    {
      "anonymous": false,
      "inputs": [
        {
          "indexed": true,
          "internalType": "address",
          "name": "nftAddress",
          "type": "address"
        },
        {
          "indexed": true,
          "internalType": "uint256",
          "name": "nftId",
          "type": "uint256"
        },
        {
          "indexed": true,
          "internalType": "address",
          "name": "initiator",
          "type": "address"
        }
      ],
      "name": "FlashLoan",
      "type": "event"
    },
    {
      "anonymous": false,
      "inputs": [
        {
          "indexed": true,
          "internalType": "address",
          "name": "nftAddress",
          "type": "address"
        },
        {
          "indexed": true,
          "internalType": "uint256",
          "name": "nftId",
          "type": "uint256"
        },
        {
          "indexed": false,
          "internalType": "uint256",
          "name": "blocks",
          "type": "uint256"
        },
        {
          "indexed": true,
          "internalType": "address",
          "name": "retner",
          "type": "address"
        }
      ],
      "name": "LongTermRent",
      "type": "event"
    },
    {
      "anonymous": false,
      "inputs": [
        {
          "indexed": true,
          "internalType": "address",
          "name": "nftAddress",
          "type": "address"
        },
        {
          "indexed": true,
          "internalType": "uint256",
          "name": "nftId",
          "type": "uint256"
        }
      ],
      "name": "RemoveNft",
      "type": "event"
    },
    {
      "anonymous": false,
      "inputs": [
        {
          "indexed": true,
          "internalType": "address",
          "name": "nftAddress",
          "type": "address"
        },
        {
          "indexed": true,
          "internalType": "uint256",
          "name": "nftId",
          "type": "uint256"
        },
        {
          "indexed": true,
          "internalType": "address",
          "name": "operator",
          "type": "address"
        }
      ],
      "name": "TokenOperatorSet",
      "type": "event"
    },
    {
      "anonymous": false,
      "inputs": [
        {
          "indexed": true,
          "internalType": "address",
          "name": "initiator",
          "type": "address"
        },
        {
          "indexed": false,
          "internalType": "uint256",
          "name": "earnings",
          "type": "uint256"
        }
      ],
      "name": "WithdrawEarnings",
      "type": "event"
    },
    {
      "inputs": [
        {
          "internalType": "address",
          "name": "nftAddress",
          "type": "address"
        },
        {
          "internalType": "uint256",
          "name": "nftId",
          "type": "uint256"
        },
        {
          "internalType": "uint256",
          "name": "flashFee",
          "type": "uint256"
        },
        {
          "internalType": "uint256",
          "name": "pricePerBlock",
          "type": "uint256"
        },
        {
          "internalType": "uint256",
          "name": "maxLongTermBlocks",
          "type": "uint256"
        }
      ],
      "name": "addNft",
      "outputs": [],
      "stateMutability": "nonpayable",
      "type": "function"
    },
    {
      "inputs": [],
      "name": "allNFT",
      "outputs": [
        {
          "components": [
            {
              "internalType": "address",
              "name": "originalOwner",
              "type": "address"
            },
            {
              "internalType": "address",
              "name": "operator",
              "type": "address"
            },
            {
              "internalType": "uint256",
              "name": "flashFee",
              "type": "uint256"
            },
            {
              "internalType": "uint256",
              "name": "pricePerBlock",
              "type": "uint256"
            },
            {
              "internalType": "uint256",
              "name": "maxLongTermBlocks",
              "type": "uint256"
            },
            {
              "internalType": "uint256",
              "name": "rentedUntil",
              "type": "uint256"
            },
            {
              "internalType": "bool",
              "name": "isRentable",
              "type": "bool"
            },
            {
              "internalType": "uint256",
              "name": "index",
              "type": "uint256"
            }
          ],
          "internalType": "struct RentingPool.PoolNFT[]",
          "name": "nfts",
          "type": "tuple[]"
        },
        {
          "components": [
            {
              "internalType": "address",
              "name": "nftAddress",
              "type": "address"
            },
            {
              "internalType": "uint256",
              "name": "nftId",
              "type": "uint256"
            }
          ],
          "internalType": "struct RentingPool.Key[]",
          "name": "indexes",
          "type": "tuple[]"
        }
      ],
      "stateMutability": "view",
      "type": "function"
    },
    {
      "inputs": [
        {
          "internalType": "address",
          "name": "nftAddress",
          "type": "address"
        },
        {
          "internalType": "uint256",
          "name": "nftId",
          "type": "uint256"
        },
        {
          "internalType": "uint256",
          "name": "flashFee",
          "type": "uint256"
        },
        {
          "internalType": "uint256",
          "name": "pricePerBlock",
          "type": "uint256"
        },
        {
          "internalType": "uint256",
          "name": "maxLongTermBlocks",
          "type": "uint256"
        }
      ],
      "name": "editNft",
      "outputs": [],
      "stateMutability": "nonpayable",
      "type": "function"
    },
    {
      "inputs": [
        {
          "internalType": "address",
          "name": "nftAddress",
          "type": "address"
        },
        {
          "internalType": "uint256",
          "name": "nftId",
          "type": "uint256"
        },
        {
          "internalType": "address",
          "name": "receiverAddress",
          "type": "address"
        },
        {
          "internalType": "bytes",
          "name": "data",
          "type": "bytes"
        }
      ],
      "name": "flashLoan",
      "outputs": [],
      "stateMutability": "payable",
      "type": "function"
    },
    {
      "inputs": [
        {
          "internalType": "address",
          "name": "owner",
          "type": "address"
        }
      ],
      "name": "getEarnings",
      "outputs": [
        {
          "internalType": "uint256",
          "name": "",
          "type": "uint256"
        }
      ],
      "stateMutability": "view",
      "type": "function"
    },
    {
      "inputs": [
        {
          "internalType": "address",
          "name": "",
          "type": "address"
        },
        {
          "internalType": "address",
          "name": "",
          "type": "address"
        },
        {
          "internalType": "uint256",
          "name": "",
          "type": "uint256"
        },
        {
          "internalType": "bytes",
          "name": "",
          "type": "bytes"
        }
      ],
      "name": "onERC721Received",
      "outputs": [
        {
          "internalType": "bytes4",
          "name": "",
          "type": "bytes4"
        }
      ],
      "stateMutability": "nonpayable",
      "type": "function"
    },
    {
      "inputs": [
        {
          "internalType": "address",
          "name": "nftAddress",
          "type": "address"
        },
        {
          "internalType": "uint256",
          "name": "nftId",
          "type": "uint256"
        }
      ],
      "name": "operatorOf",
      "outputs": [
        {
          "internalType": "address",
          "name": "operator",
          "type": "address"
        }
      ],
      "stateMutability": "view",
      "type": "function"
    },
    {
      "inputs": [
        {
          "internalType": "address",
          "name": "owner",
          "type": "address"
        }
      ],
      "name": "ownerNFT",
      "outputs": [
        {
          "components": [
            {
              "internalType": "address",
              "name": "originalOwner",
              "type": "address"
            },
            {
              "internalType": "address",
              "name": "operator",
              "type": "address"
            },
            {
              "internalType": "uint256",
              "name": "flashFee",
              "type": "uint256"
            },
            {
              "internalType": "uint256",
              "name": "pricePerBlock",
              "type": "uint256"
            },
            {
              "internalType": "uint256",
              "name": "maxLongTermBlocks",
              "type": "uint256"
            },
            {
              "internalType": "uint256",
              "name": "rentedUntil",
              "type": "uint256"
            },
            {
              "internalType": "bool",
              "name": "isRentable",
              "type": "bool"
            },
            {
              "internalType": "uint256",
              "name": "index",
              "type": "uint256"
            }
          ],
          "internalType": "struct RentingPool.PoolNFT[]",
          "name": "nfts",
          "type": "tuple[]"
        },
        {
          "components": [
            {
              "internalType": "address",
              "name": "nftAddress",
              "type": "address"
            },
            {
              "internalType": "uint256",
              "name": "nftId",
              "type": "uint256"
            }
          ],
          "internalType": "struct RentingPool.Key[]",
          "name": "indexes",
          "type": "tuple[]"
        }
      ],
      "stateMutability": "view",
      "type": "function"
    },
    {
      "inputs": [
        {
          "internalType": "address",
          "name": "nftAddress",
          "type": "address"
        },
        {
          "internalType": "uint256",
          "name": "nftId",
          "type": "uint256"
        }
      ],
      "name": "removeNft",
      "outputs": [],
      "stateMutability": "nonpayable",
      "type": "function"
    },
    {
      "inputs": [
        {
          "internalType": "address",
          "name": "nftAddress",
          "type": "address"
        },
        {
          "internalType": "uint256",
          "name": "nftId",
          "type": "uint256"
        },
        {
          "internalType": "address",
          "name": "receiverAddress",
          "type": "address"
        },
        {
          "internalType": "uint256",
          "name": "blocks",
          "type": "uint256"
        }
      ],
      "name": "rentLong",
      "outputs": [],
      "stateMutability": "payable",
      "type": "function"
    },
    {
      "inputs": [
        {
          "internalType": "address",
          "name": "nftAddress",
          "type": "address"
        },
        {
          "internalType": "uint256",
          "name": "nftId",
          "type": "uint256"
        },
        {
          "internalType": "address",
          "name": "operator",
          "type": "address"
        }
      ],
      "name": "setTokenOperator",
      "outputs": [],
      "stateMutability": "nonpayable",
      "type": "function"
    },
    {
      "inputs": [],
      "name": "withdrawEarnings",
      "outputs": [],
      "stateMutability": "nonpayable",
      "type": "function"
    }
  ],
  "bytecode": "0x608060405234801561001057600080fd5b50613834806100206000396000f3fe6080604052600436106100a75760003560e01c8063adf51de111610064578063adf51de1146101de578063b73c6ce9146101fa578063ece187f114610211578063f2dbb39f1461022d578063fa29414914610259578063fc82a5ce14610297576100a7565b80630111d773146100ac5780630e285d2a146100d5578063131b9c0414610112578063150b7a021461014f5780631df2a44f1461018c5780633efe76e0146101b5575b600080fd5b3480156100b857600080fd5b506100d360048036038101906100ce91906128cf565b6102c0565b005b3480156100e157600080fd5b506100fc60048036038101906100f79190612893565b610514565b6040516101099190612e9f565b60405180910390f35b34801561011e57600080fd5b50610139600480360381019061013491906127ef565b610591565b60405161014691906130ff565b60405180910390f35b34801561015b57600080fd5b5061017660048036038101906101719190612818565b6105da565b6040516101839190612f84565b60405180910390f35b34801561019857600080fd5b506101b360048036038101906101ae9190612a01565b6105ee565b005b3480156101c157600080fd5b506101dc60048036038101906101d79190612a01565b610749565b005b6101f860048036038101906101f3919061291e565b610bd8565b005b34801561020657600080fd5b5061020f61114e565b005b61022b6004803603810190610226919061299e565b6112d5565b005b34801561023957600080fd5b50610242611611565b604051610250929190612f4d565b60405180910390f35b34801561026557600080fd5b50610280600480360381019061027b91906127ef565b611a83565b60405161028e929190612f4d565b60405180910390f35b3480156102a357600080fd5b506102be60048036038101906102b99190612893565b6120d7565b005b60008060008573ffffffffffffffffffffffffffffffffffffffff1673ffffffffffffffffffffffffffffffffffffffff168152602001908152602001600020600084815260200190815260200160002090508060000160009054906101000a900473ffffffffffffffffffffffffffffffffffffffff1673ffffffffffffffffffffffffffffffffffffffff163373ffffffffffffffffffffffffffffffffffffffff16146103a5576040517f08c379a000000000000000000000000000000000000000000000000000000000815260040161039c906130df565b60405180910390fd5b438160050154106103eb576040517f08c379a00000000000000000000000000000000000000000000000000000000081526004016103e29061303f565b60405180910390fd5b818160010160006101000a81548173ffffffffffffffffffffffffffffffffffffffff021916908373ffffffffffffffffffffffffffffffffffffffff1602179055508060060160009054906101000a900460ff16156104b3578373ffffffffffffffffffffffffffffffffffffffff1663e7a1c1c084846040518363ffffffff1660e01b815260040161048092919061311a565b600060405180830381600087803b15801561049a57600080fd5b505af11580156104ae573d6000803e3d6000fd5b505050505b8173ffffffffffffffffffffffffffffffffffffffff16838573ffffffffffffffffffffffffffffffffffffffff167f15d0c40203061217293937ad52e8c2445b5f5b5ec6eb3eeb1959c265c0ff076260405160405180910390a450505050565b60008060008473ffffffffffffffffffffffffffffffffffffffff1673ffffffffffffffffffffffffffffffffffffffff168152602001908152602001600020600083815260200190815260200160002060010160009054906101000a900473ffffffffffffffffffffffffffffffffffffffff16905092915050565b6000600260008373ffffffffffffffffffffffffffffffffffffffff1673ffffffffffffffffffffffffffffffffffffffff168152602001908152602001600020549050919050565b600063150b7a0260e01b9050949350505050565b60008060008773ffffffffffffffffffffffffffffffffffffffff1673ffffffffffffffffffffffffffffffffffffffff168152602001908152602001600020600086815260200190815260200160002090503373ffffffffffffffffffffffffffffffffffffffff168160000160009054906101000a900473ffffffffffffffffffffffffffffffffffffffff1673ffffffffffffffffffffffffffffffffffffffff16146106d3576040517f08c379a00000000000000000000000000000000000000000000000000000000081526004016106ca906130df565b60405180910390fd5b838160020181905550828160030181905550818160040181905550848673ffffffffffffffffffffffffffffffffffffffff167f72531487465a1bc55b36aa4f56b284b573ca151e1cbe8e9eca414ccc02445add86868660405161073993929190613143565b60405180910390a3505050505050565b8473ffffffffffffffffffffffffffffffffffffffff166342842e0e3330876040518463ffffffff1660e01b815260040161078693929190612eba565b600060405180830381600087803b1580156107a057600080fd5b505af11580156107b4573d6000803e3d6000fd5b5050505060008573ffffffffffffffffffffffffffffffffffffffff166301ffc9a77f0b4603a8000000000000000000000000000000000000000000000000000000006040518263ffffffff1660e01b81526004016108139190612f84565b60206040518083038186803b15801561082b57600080fd5b505afa15801561083f573d6000803e3d6000fd5b505050506040513d601f19601f820116820180604052508101906108639190612a78565b9050600060018054905090506040518061010001604052803373ffffffffffffffffffffffffffffffffffffffff1681526020013373ffffffffffffffffffffffffffffffffffffffff168152602001868152602001858152602001848152602001600081526020018315158152602001828152506000808973ffffffffffffffffffffffffffffffffffffffff1673ffffffffffffffffffffffffffffffffffffffff168152602001908152602001600020600088815260200190815260200160002060008201518160000160006101000a81548173ffffffffffffffffffffffffffffffffffffffff021916908373ffffffffffffffffffffffffffffffffffffffff16021790555060208201518160010160006101000a81548173ffffffffffffffffffffffffffffffffffffffff021916908373ffffffffffffffffffffffffffffffffffffffff16021790555060408201518160020155606082015181600301556080820151816004015560a0820151816005015560c08201518160060160006101000a81548160ff02191690831515021790555060e08201518160070155905050600160405180604001604052808973ffffffffffffffffffffffffffffffffffffffff16815260200188815250908060018154018082558091505060019003906000526020600020906002020160009091909190915060008201518160000160006101000a81548173ffffffffffffffffffffffffffffffffffffffff021916908373ffffffffffffffffffffffffffffffffffffffff160217905550602082015181600101555050600360003373ffffffffffffffffffffffffffffffffffffffff1673ffffffffffffffffffffffffffffffffffffffff1681526020019081526020016000206000815480929190610b0390613431565b91905055508115610b7c578673ffffffffffffffffffffffffffffffffffffffff1663e7a1c1c087336040518363ffffffff1660e01b8152600401610b4992919061311a565b600060405180830381600087803b158015610b6357600080fd5b505af1158015610b77573d6000803e3d6000fd5b505050505b858773ffffffffffffffffffffffffffffffffffffffff167fcca24609298d0112dea60c6387622c12136ebea731c798596b3f09ca27f71d25878787604051610bc793929190613143565b60405180910390a350505050505050565b60008060008773ffffffffffffffffffffffffffffffffffffffff1673ffffffffffffffffffffffffffffffffffffffff168152602001908152602001600020600086815260200190815260200160002090506000438260050154101590508015610cd0573373ffffffffffffffffffffffffffffffffffffffff168260010160009054906101000a900473ffffffffffffffffffffffffffffffffffffffff1673ffffffffffffffffffffffffffffffffffffffff1614610ccf576040517f08c379a0000000000000000000000000000000000000000000000000000000008152600401610cc690612f9f565b60405180910390fd5b5b60003373ffffffffffffffffffffffffffffffffffffffff168360010160009054906101000a900473ffffffffffffffffffffffffffffffffffffffff1673ffffffffffffffffffffffffffffffffffffffff1614610d33578260020154610d36565b60005b905080341015610d7b576040517f08c379a0000000000000000000000000000000000000000000000000000000008152600401610d729061305f565b60405180910390fd5b8773ffffffffffffffffffffffffffffffffffffffff166342842e0e30888a6040518463ffffffff1660e01b8152600401610db893929190612eba565b600060405180830381600087803b158015610dd257600080fd5b505af1158015610de6573d6000803e3d6000fd5b5050505081158015610e0657508260060160009054906101000a900460ff165b15610e79578773ffffffffffffffffffffffffffffffffffffffff1663e7a1c1c088886040518363ffffffff1660e01b8152600401610e4692919061311a565b600060405180830381600087803b158015610e6057600080fd5b505af1158015610e74573d6000803e3d6000fd5b505050505b8573ffffffffffffffffffffffffffffffffffffffff16638f79bdd2898984338a8a6040518763ffffffff1660e01b8152600401610ebc96959493929190612ef1565b602060405180830381600087803b158015610ed657600080fd5b505af1158015610eea573d6000803e3d6000fd5b505050506040513d601f19601f82011682018060405250810190610f0e9190612a78565b610f4d576040517f08c379a0000000000000000000000000000000000000000000000000000000008152600401610f449061301f565b60405180910390fd5b81158015610f6957508260060160009054906101000a900460ff165b15611000578773ffffffffffffffffffffffffffffffffffffffff1663e7a1c1c0888560010160009054906101000a900473ffffffffffffffffffffffffffffffffffffffff166040518363ffffffff1660e01b8152600401610fcd92919061311a565b600060405180830381600087803b158015610fe757600080fd5b505af1158015610ffb573d6000803e3d6000fd5b505050505b8773ffffffffffffffffffffffffffffffffffffffff166342842e0e87308a6040518463ffffffff1660e01b815260040161103d93929190612eba565b600060405180830381600087803b15801561105757600080fd5b505af115801561106b573d6000803e3d6000fd5b5050505034600260008560000160009054906101000a900473ffffffffffffffffffffffffffffffffffffffff1673ffffffffffffffffffffffffffffffffffffffff1673ffffffffffffffffffffffffffffffffffffffff16815260200190815260200160002060008282546110e2919061326f565b925050819055503373ffffffffffffffffffffffffffffffffffffffff16878973ffffffffffffffffffffffffffffffffffffffff167f5931a93eeea518d0bc5077cf5bc1c1862e0277a160701fec6383d09edf305fbd60405160405180910390a45050505050505050565b6000600260003373ffffffffffffffffffffffffffffffffffffffff1673ffffffffffffffffffffffffffffffffffffffff1681526020019081526020016000205490506000600260003373ffffffffffffffffffffffffffffffffffffffff1673ffffffffffffffffffffffffffffffffffffffff1681526020019081526020016000208190555060003373ffffffffffffffffffffffffffffffffffffffff16826040516111fd90612e8a565b60006040518083038185875af1925050503d806000811461123a576040519150601f19603f3d011682016040523d82523d6000602084013e61123f565b606091505b5050905080611283576040517f08c379a000000000000000000000000000000000000000000000000000000000815260040161127a90612fff565b60405180910390fd5b3373ffffffffffffffffffffffffffffffffffffffff167f64757b9a00f193ad19794cab4d1545a2f93edb93a4b18ec8e5e46583924d0876836040516112c991906130ff565b60405180910390a25050565b60008060008673ffffffffffffffffffffffffffffffffffffffff1673ffffffffffffffffffffffffffffffffffffffff16815260200190815260200160002060008581526020019081526020016000209050600081600301541161136f576040517f08c379a00000000000000000000000000000000000000000000000000000000081526004016113669061307f565b60405180910390fd5b438160050154106113b5576040517f08c379a00000000000000000000000000000000000000000000000000000000081526004016113ac906130bf565b60405180910390fd5b81816004015411156113fc576040517f08c379a00000000000000000000000000000000000000000000000000000000081526004016113f390612fdf565b60405180910390fd5b3482826003015461140d91906132c5565b111561144e576040517f08c379a00000000000000000000000000000000000000000000000000000000081526004016114459061309f565b60405180910390fd5b828160010160006101000a81548173ffffffffffffffffffffffffffffffffffffffff021916908373ffffffffffffffffffffffffffffffffffffffff160217905550814361149d919061326f565b816005018190555034600260008360000160009054906101000a900473ffffffffffffffffffffffffffffffffffffffff1673ffffffffffffffffffffffffffffffffffffffff1673ffffffffffffffffffffffffffffffffffffffff1681526020019081526020016000206000828254611518919061326f565b925050819055508060060160009054906101000a900460ff16156115a4578473ffffffffffffffffffffffffffffffffffffffff1663e7a1c1c085856040518363ffffffff1660e01b815260040161157192919061311a565b600060405180830381600087803b15801561158b57600080fd5b505af115801561159f573d6000803e3d6000fd5b505050505b8273ffffffffffffffffffffffffffffffffffffffff16848673ffffffffffffffffffffffffffffffffffffffff167fe61c200c9c351edcb91b8de4b34457c7e03f1ed02685b7147977d738712401628560405161160291906130ff565b60405180910390a45050505050565b60608060018054905067ffffffffffffffff811115611659577f4e487b7100000000000000000000000000000000000000000000000000000000600052604160045260246000fd5b60405190808252806020026020018201604052801561169257816020015b61167f61265b565b8152602001906001900390816116775790505b50915060018054905067ffffffffffffffff8111156116da577f4e487b7100000000000000000000000000000000000000000000000000000000600052604160045260246000fd5b60405190808252806020026020018201604052801561171357816020015b6117006126ce565b8152602001906001900390816116f85790505b50905060005b600180549050811015611a7e5760008060018381548110611763577f4e487b7100000000000000000000000000000000000000000000000000000000600052603260045260246000fd5b906000526020600020906002020160000160009054906101000a900473ffffffffffffffffffffffffffffffffffffffff1673ffffffffffffffffffffffffffffffffffffffff1673ffffffffffffffffffffffffffffffffffffffff16815260200190815260200160002060006001838154811061180b577f4e487b7100000000000000000000000000000000000000000000000000000000600052603260045260246000fd5b9060005260206000209060020201600101548152602001908152602001600020604051806101000160405290816000820160009054906101000a900473ffffffffffffffffffffffffffffffffffffffff1673ffffffffffffffffffffffffffffffffffffffff1673ffffffffffffffffffffffffffffffffffffffff1681526020016001820160009054906101000a900473ffffffffffffffffffffffffffffffffffffffff1673ffffffffffffffffffffffffffffffffffffffff1673ffffffffffffffffffffffffffffffffffffffff168152602001600282015481526020016003820154815260200160048201548152602001600582015481526020016006820160009054906101000a900460ff16151515158152602001600782015481525050838281518110611969577f4e487b7100000000000000000000000000000000000000000000000000000000600052603260045260246000fd5b6020026020010181905250600181815481106119ae577f4e487b7100000000000000000000000000000000000000000000000000000000600052603260045260246000fd5b90600052602060002090600202016040518060400160405290816000820160009054906101000a900473ffffffffffffffffffffffffffffffffffffffff1673ffffffffffffffffffffffffffffffffffffffff1673ffffffffffffffffffffffffffffffffffffffff168152602001600182015481525050828281518110611a60577f4e487b7100000000000000000000000000000000000000000000000000000000600052603260045260246000fd5b60200260200101819052508080611a7690613431565b915050611719565b509091565b606080600360008473ffffffffffffffffffffffffffffffffffffffff1673ffffffffffffffffffffffffffffffffffffffff1681526020019081526020016000205467ffffffffffffffff811115611b05577f4e487b7100000000000000000000000000000000000000000000000000000000600052604160045260246000fd5b604051908082528060200260200182016040528015611b3e57816020015b611b2b61265b565b815260200190600190039081611b235790505b509150600360008473ffffffffffffffffffffffffffffffffffffffff1673ffffffffffffffffffffffffffffffffffffffff1681526020019081526020016000205467ffffffffffffffff811115611bc0577f4e487b7100000000000000000000000000000000000000000000000000000000600052604160045260246000fd5b604051908082528060200260200182016040528015611bf957816020015b611be66126ce565b815260200190600190039081611bde5790505b5090506000805b6001805490508110156120d0578473ffffffffffffffffffffffffffffffffffffffff1660008060018481548110611c61577f4e487b7100000000000000000000000000000000000000000000000000000000600052603260045260246000fd5b906000526020600020906002020160000160009054906101000a900473ffffffffffffffffffffffffffffffffffffffff1673ffffffffffffffffffffffffffffffffffffffff1673ffffffffffffffffffffffffffffffffffffffff168152602001908152602001600020600060018481548110611d09577f4e487b7100000000000000000000000000000000000000000000000000000000600052603260045260246000fd5b906000526020600020906002020160010154815260200190815260200160002060000160009054906101000a900473ffffffffffffffffffffffffffffffffffffffff1673ffffffffffffffffffffffffffffffffffffffff1614156120bd5760008060018381548110611da6577f4e487b7100000000000000000000000000000000000000000000000000000000600052603260045260246000fd5b906000526020600020906002020160000160009054906101000a900473ffffffffffffffffffffffffffffffffffffffff1673ffffffffffffffffffffffffffffffffffffffff1673ffffffffffffffffffffffffffffffffffffffff168152602001908152602001600020600060018381548110611e4e577f4e487b7100000000000000000000000000000000000000000000000000000000600052603260045260246000fd5b9060005260206000209060020201600101548152602001908152602001600020604051806101000160405290816000820160009054906101000a900473ffffffffffffffffffffffffffffffffffffffff1673ffffffffffffffffffffffffffffffffffffffff1673ffffffffffffffffffffffffffffffffffffffff1681526020016001820160009054906101000a900473ffffffffffffffffffffffffffffffffffffffff1673ffffffffffffffffffffffffffffffffffffffff1673ffffffffffffffffffffffffffffffffffffffff168152602001600282015481526020016003820154815260200160048201548152602001600582015481526020016006820160009054906101000a900460ff16151515158152602001600782015481525050848381518110611fac577f4e487b7100000000000000000000000000000000000000000000000000000000600052603260045260246000fd5b602002602001018190525060018181548110611ff1577f4e487b7100000000000000000000000000000000000000000000000000000000600052603260045260246000fd5b90600052602060002090600202016040518060400160405290816000820160009054906101000a900473ffffffffffffffffffffffffffffffffffffffff1673ffffffffffffffffffffffffffffffffffffffff1673ffffffffffffffffffffffffffffffffffffffff1681526020016001820154815250508383815181106120a3577f4e487b7100000000000000000000000000000000000000000000000000000000600052603260045260246000fd5b602002602001018190525081806120b990613431565b9250505b80806120c890613431565b915050611c00565b5050915091565b60008060008473ffffffffffffffffffffffffffffffffffffffff1673ffffffffffffffffffffffffffffffffffffffff168152602001908152602001600020600083815260200190815260200160002090503373ffffffffffffffffffffffffffffffffffffffff168160000160009054906101000a900473ffffffffffffffffffffffffffffffffffffffff1673ffffffffffffffffffffffffffffffffffffffff16146121bc576040517f08c379a00000000000000000000000000000000000000000000000000000000081526004016121b3906130df565b60405180910390fd5b43816005015410612202576040517f08c379a00000000000000000000000000000000000000000000000000000000081526004016121f990612fbf565b60405180910390fd5b60008060008573ffffffffffffffffffffffffffffffffffffffff1673ffffffffffffffffffffffffffffffffffffffff16815260200190815260200160002060008481526020019081526020016000206007015490506000600180808054905061226d919061331f565b815481106122a4577f4e487b7100000000000000000000000000000000000000000000000000000000600052603260045260246000fd5b9060005260206000209060020201905080600183815481106122ef577f4e487b7100000000000000000000000000000000000000000000000000000000600052603260045260246000fd5b90600052602060002090600202016000820160009054906101000a900473ffffffffffffffffffffffffffffffffffffffff168160000160006101000a81548173ffffffffffffffffffffffffffffffffffffffff021916908373ffffffffffffffffffffffffffffffffffffffff16021790555060018201548160010155905050816000808360000160009054906101000a900473ffffffffffffffffffffffffffffffffffffffff1673ffffffffffffffffffffffffffffffffffffffff1673ffffffffffffffffffffffffffffffffffffffff168152602001908152602001600020600083600101548152602001908152602001600020600701819055506001805480612428577f4e487b7100000000000000000000000000000000000000000000000000000000600052603160045260246000fd5b6001900381819060005260206000209060020201600080820160006101000a81549073ffffffffffffffffffffffffffffffffffffffff02191690556001820160009055505090556000808673ffffffffffffffffffffffffffffffffffffffff1673ffffffffffffffffffffffffffffffffffffffff1681526020019081526020016000206000858152602001908152602001600020600080820160006101000a81549073ffffffffffffffffffffffffffffffffffffffff02191690556001820160006101000a81549073ffffffffffffffffffffffffffffffffffffffff021916905560028201600090556003820160009055600482016000905560058201600090556006820160006101000a81549060ff021916905560078201600090555050600360003373ffffffffffffffffffffffffffffffffffffffff1673ffffffffffffffffffffffffffffffffffffffff168152602001908152602001600020600081548092919061259c906133d6565b91905055508473ffffffffffffffffffffffffffffffffffffffff166342842e0e3033876040518463ffffffff1660e01b81526004016125de93929190612eba565b600060405180830381600087803b1580156125f857600080fd5b505af115801561260c573d6000803e3d6000fd5b50505050838573ffffffffffffffffffffffffffffffffffffffff167f71b81f63a8c7eda82dcb01f24a3306a11c1faab1a00084be12b334c042ffe7e360405160405180910390a35050505050565b604051806101000160405280600073ffffffffffffffffffffffffffffffffffffffff168152602001600073ffffffffffffffffffffffffffffffffffffffff16815260200160008152602001600081526020016000815260200160008152602001600015158152602001600081525090565b6040518060400160405280600073ffffffffffffffffffffffffffffffffffffffff168152602001600081525090565b600061271161270c8461319f565b61317a565b90508281526020810184848401111561272957600080fd5b6127348482856133c7565b509392505050565b60008135905061274b816137b9565b92915050565b600081519050612760816137d0565b92915050565b60008083601f84011261277857600080fd5b8235905067ffffffffffffffff81111561279157600080fd5b6020830191508360018202830111156127a957600080fd5b9250929050565b600082601f8301126127c157600080fd5b81356127d18482602086016126fe565b91505092915050565b6000813590506127e9816137e7565b92915050565b60006020828403121561280157600080fd5b600061280f8482850161273c565b91505092915050565b6000806000806080858703121561282e57600080fd5b600061283c8782880161273c565b945050602061284d8782880161273c565b935050604061285e878288016127da565b925050606085013567ffffffffffffffff81111561287b57600080fd5b612887878288016127b0565b91505092959194509250565b600080604083850312156128a657600080fd5b60006128b48582860161273c565b92505060206128c5858286016127da565b9150509250929050565b6000806000606084860312156128e457600080fd5b60006128f28682870161273c565b9350506020612903868287016127da565b92505060406129148682870161273c565b9150509250925092565b60008060008060006080868803121561293657600080fd5b60006129448882890161273c565b9550506020612955888289016127da565b94505060406129668882890161273c565b935050606086013567ffffffffffffffff81111561298357600080fd5b61298f88828901612766565b92509250509295509295909350565b600080600080608085870312156129b457600080fd5b60006129c28782880161273c565b94505060206129d3878288016127da565b93505060406129e48782880161273c565b92505060606129f5878288016127da565b91505092959194509250565b600080600080600060a08688031215612a1957600080fd5b6000612a278882890161273c565b9550506020612a38888289016127da565b9450506040612a49888289016127da565b9350506060612a5a888289016127da565b9250506080612a6b888289016127da565b9150509295509295909350565b600060208284031215612a8a57600080fd5b6000612a9884828501612751565b91505092915050565b6000612aad8383612d9b565b60408301905092915050565b6000612ac58383612dca565b6101008301905092915050565b612adb81613353565b82525050565b612aea81613353565b82525050565b6000612afb826131f0565b612b058185613220565b9350612b10836131d0565b8060005b83811015612b41578151612b288882612aa1565b9750612b3383613206565b925050600181019050612b14565b5085935050505092915050565b6000612b59826131fb565b612b638185613231565b9350612b6e836131e0565b8060005b83811015612b9f578151612b868882612ab9565b9750612b9183613213565b925050600181019050612b72565b5085935050505092915050565b612bb581613365565b82525050565b612bc481613371565b82525050565b6000612bd68385613242565b9350612be38385846133c7565b612bec836134d8565b840190509392505050565b6000612c04603a8361325e565b9150612c0f826134e9565b604082019050919050565b6000612c2760318361325e565b9150612c3282613538565b604082019050919050565b6000612c4a60238361325e565b9150612c5582613587565b604082019050919050565b6000612c6d600f8361325e565b9150612c78826135d6565b602082019050919050565b6000612c9060228361325e565b9150612c9b826135ff565b604082019050919050565b6000612cb360288361325e565b9150612cbe8261364e565b604082019050919050565b6000612cd660348361325e565b9150612ce18261369d565b604082019050919050565b6000612cf9600083613253565b9150612d04826136ec565b600082019050919050565b6000612d1c60188361325e565b9150612d27826136ef565b602082019050919050565b6000612d3f60158361325e565b9150612d4a82613718565b602082019050919050565b6000612d62601b8361325e565b9150612d6d82613741565b602082019050919050565b6000612d85602a8361325e565b9150612d908261376a565b604082019050919050565b604082016000820151612db16000850182612ad2565b506020820151612dc46020850182612e6c565b50505050565b61010082016000820151612de16000850182612ad2565b506020820151612df46020850182612ad2565b506040820151612e076040850182612e6c565b506060820151612e1a6060850182612e6c565b506080820151612e2d6080850182612e6c565b5060a0820151612e4060a0850182612e6c565b5060c0820151612e5360c0850182612bac565b5060e0820151612e6660e0850182612e6c565b50505050565b612e75816133bd565b82525050565b612e84816133bd565b82525050565b6000612e9582612cec565b9150819050919050565b6000602082019050612eb46000830184612ae1565b92915050565b6000606082019050612ecf6000830186612ae1565b612edc6020830185612ae1565b612ee96040830184612e7b565b949350505050565b600060a082019050612f066000830189612ae1565b612f136020830188612e7b565b612f206040830187612e7b565b612f2d6060830186612ae1565b8181036080830152612f40818486612bca565b9050979650505050505050565b60006040820190508181036000830152612f678185612b4e565b90508181036020830152612f7b8184612af0565b90509392505050565b6000602082019050612f996000830184612bbb565b92915050565b60006020820190508181036000830152612fb881612bf7565b9050919050565b60006020820190508181036000830152612fd881612c1a565b9050919050565b60006020820190508181036000830152612ff881612c3d565b9050919050565b6000602082019050818103600083015261301881612c60565b9050919050565b6000602082019050818103600083015261303881612c83565b9050919050565b6000602082019050818103600083015261305881612ca6565b9050919050565b6000602082019050818103600083015261307881612cc9565b9050919050565b6000602082019050818103600083015261309881612d0f565b9050919050565b600060208201905081810360008301526130b881612d32565b9050919050565b600060208201905081810360008301526130d881612d55565b9050919050565b600060208201905081810360008301526130f881612d78565b9050919050565b60006020820190506131146000830184612e7b565b92915050565b600060408201905061312f6000830185612e7b565b61313c6020830184612ae1565b9392505050565b60006060820190506131586000830186612e7b565b6131656020830185612e7b565b6131726040830184612e7b565b949350505050565b6000613184613195565b90506131908282613400565b919050565b6000604051905090565b600067ffffffffffffffff8211156131ba576131b96134a9565b5b6131c3826134d8565b9050602081019050919050565b6000819050602082019050919050565b6000819050602082019050919050565b600081519050919050565b600081519050919050565b6000602082019050919050565b6000602082019050919050565b600082825260208201905092915050565b600082825260208201905092915050565b600082825260208201905092915050565b600081905092915050565b600082825260208201905092915050565b600061327a826133bd565b9150613285836133bd565b9250827fffffffffffffffffffffffffffffffffffffffffffffffffffffffffffffffff038211156132ba576132b961347a565b5b828201905092915050565b60006132d0826133bd565b91506132db836133bd565b9250817fffffffffffffffffffffffffffffffffffffffffffffffffffffffffffffffff04831182151516156133145761331361347a565b5b828202905092915050565b600061332a826133bd565b9150613335836133bd565b9250828210156133485761334761347a565b5b828203905092915050565b600061335e8261339d565b9050919050565b60008115159050919050565b60007fffffffff0000000000000000000000000000000000000000000000000000000082169050919050565b600073ffffffffffffffffffffffffffffffffffffffff82169050919050565b6000819050919050565b82818337600083830152505050565b60006133e1826133bd565b915060008214156133f5576133f461347a565b5b600182039050919050565b613409826134d8565b810181811067ffffffffffffffff82111715613428576134276134a9565b5b80604052505050565b600061343c826133bd565b91507fffffffffffffffffffffffffffffffffffffffffffffffffffffffffffffffff82141561346f5761346e61347a565b5b600182019050919050565b7f4e487b7100000000000000000000000000000000000000000000000000000000600052601160045260246000fd5b7f4e487b7100000000000000000000000000000000000000000000000000000000600052604160045260246000fd5b6000601f19601f8301169050919050565b7f54686973204e46542069732072656e74656420616e64206f6e6c79207468652060008201527f6f70657261746f722063616e20666c617368206c6f616e206974000000000000602082015250565b7f43616e27742072656d6f7665206e66742066726f6d2074686520706f6f6c207760008201527f68696c652069742069732072656e746564000000000000000000000000000000602082015250565b7f596f752063616e27742072656e742074686973206e667420666f7220736f206c60008201527f6f6e670000000000000000000000000000000000000000000000000000000000602082015250565b7f5472616e73666572206661696c65640000000000000000000000000000000000600082015250565b7f4572726f7220647572696e6720466c61736852656e746572206578656375746960008201527f6f6e000000000000000000000000000000000000000000000000000000000000602082015250565b7f43616e277420736574206f70657261746f72207768696c6520746f6b656e206960008201527f732072656e746564000000000000000000000000000000000000000000000000602082015250565b7f596f752063616e27742074616b652074686520666c6173686c6f616e20666f7260008201527f2074686520696e64696361746564207072696365000000000000000000000000602082015250565b50565b7f546865206e6674206973206e6f7420617661696c61626c650000000000000000600082015250565b7f5061796d656e74206973206e6f7420656e6f7567680000000000000000000000600082015250565b7f546865206e66742069732063757272656e746c792072656e7465640000000000600082015250565b7f43616c6c65722073686f756c64206265206f726967696e616c206f776e65722060008201527f6f6620746865206e667400000000000000000000000000000000000000000000602082015250565b6137c281613353565b81146137cd57600080fd5b50565b6137d981613365565b81146137e457600080fd5b50565b6137f0816133bd565b81146137fb57600080fd5b5056fea2646970667358221220434378b4021a6d9b574f57f7a29abca9632a5a3ff1955565195518f2c00bc59b64736f6c63430008040033",
  "linkReferences": {},
  "deployedLinkReferences": {}
}